:100000000C943E000C9448000C9448000C9448005A
:100010000C9448000C9448000C9448000C94480040
:100020000C9448000C9448000C9448000C94480030
:100030000C9448000C9448000C9448000C94480020
:100040000C9448000C9448000C9448000C94480010
:100050000C9448000C9448000C9448000C94480000
:100060000C9448000C9448009200800082008400A8
:10007000860088008A008C008E00900011241FBE2C
:10008000CFEFD8E0DEBFCDBF0E944A000C94AB009A
:100090000C9400008FEF84B98FE087B98CEF8AB998
:1000A00083E08BB990E080E020E048990CC0833079
:1000B00008F42F5F2A3039F4833018F48F5F20E082
:1000C00002C083E020E0499908C0222311F02150AA
:1000D00004C0882311F0815029E03FEF41EE54E045
:1000E000315040405040E1F700C00000422F50E046
:1000F0004A305105C0F4FA01EC5CFF4F0C94A500A6
:1001000090E111C090E20FC090E30DC090E40BC0ED
:1001100090E509C090E607C090E705C090E803C0ED
:1001200090E901C090E095B9813031F058F082300B
:1001300029F0833029F007C091E005C092E003C0A8
:1001400093E001C090E098B9B0CFEE0FFF1F05908B
:0A015000F491E02D0994F894FFCF1C
:00000001FF
