S01C00004D617465757350657265697261537072696E74342E737265631D
S11300000C9424010C9443010C9473010C9441014D
S11300100C9441010C940D020C9441010C94410187
S11300200C9441010C9441010C9441010C94410144
S11300300C9441010C9441010C94A3010C944101D2
S11300400C9441010C9441010C9441010C94410124
S11300500C9441010C943E020C9441010C94410116
S11300600C9441010C944101000000000000005F69
S113007000000007000700147F147F14242A7F2A3D
S11300801223130864623649552250000503000008
S1130090001C2241000041221C0014083E081408E0
S11300A0083E0808005030000008080808080060EE
S11300B060000020100804023E5149453E00427F82
S11300C0400042615149462141454B311814127F89
S11300D01027454545393C4A494930017109050312
S11300E03649494936064949291E0036360000007A
S11300F0563600000814224100141414141400414C
S11301002214080201510906324979413E7E111137
S1130110117E7F494949363E414141227F41412276
S11301201C7F494949417F090909013E4149497AEE
S11301307F0808087F00417F41002040413F017F44
S1130140081422417F404040407F020C027F7F041C
S113015008107F3E4141413E7F090909063E415155
S1130160215E7F09192946464949493101017F0128
S1130170013F4040403F1F2040201F3F4038403F48
S11301806314081463070870080761514945430064
S11301907F41410002040810200041417F00040215
S11301A00102044040404040000102040020545435
S11301B054787F48444438384444442038444448BC
S11301C07F3854545418087E0901020C5252523E8E
S11301D07F0804047800447D40002040443D007FB3
S11301E01028440000417F40007C041804787C08F7
S11301F004047838444444387C141414080814144F
S1130200187C7C080404084854545420043F444097
S1130210203C4040207C1C2040201C3C4030403C82
S113022044281028440C5050503C4464544C44001E
S11302300836410000007F00000041360800100825
S1130240081008000000000011241FBECFEFD8E002
S1130250DEBFCDBF11E0A0E0B1E0EAE0F0E102C012
S113026005900D92AE33B107D9F723E0AEE3B1E0C8
S113027001C01D92AE35B207E1F70E9472020C94E0
S113028003080C9400001F920F920FB60F921124D2
S11302902F933F934F935F936F937F938F939F938A
S11302A0AF93BF93EF93FF936091000170910101AD
S11302B06F5F7F4F709301016093000180E090E0D5
S11302C00E94F507FF91EF91BF91AF919F918F919C
S11302D07F916F915F914F913F912F910F900FBE3E
S11302E00F901F9018951F920F920FB60F92112422
S11302F02F933F934F935F936F937F938F939F932A
S1130300AF93BF93EF93FF9360910001709101014C
S113031061507109709301016093000180E090E0E5
S11303200E94F507FF91EF91BF91AF919F918F913B
S11303307F916F915F914F913F912F910F900FBEDD
S11303400F901F9018951F920F920FB60F921124C1
S11303502F933F934F935F936F937F938F939F93C9
S1130360AF93BF93EF93FF9340914C0150914D0194
S11303704F5F5F4F50934D0140934C019A01369566
S113038027953695279536952795A5ECB0E20E94DA
S1130390A907929582958F7089279F70892768EEA7
S11303A073E0869F9001879F300D969F300D112436
S11303B04217530709F560914A0170914B0180E09F
S11303C090E00E948E0620E030E040E752E40E9474
S11303D01C070E945F0670935301609352011092B0
S11303E04B0110924A018091480190914901019674
S11303F09093490180934801FF91EF91BF91AF9190
S11304009F918F917F916F915F914F913F912F9128
S11304100F900FBE0F901F9018951F920F920FB65A
S11304200F9211248F939F93499909C080914A0197
S113043090914B01019690934B0180934A014C9902
S113044007C085E090E090934301809342010FC080
S11304504D9907C08BE090E0909343018093420153
S113046006C08DE090E090934301809342019F91F8
S11304708F910F900FBE0F901F9018951F920F929F
S11304800FB60F9211242F938F939F93EF93FF93A3
S1130490E8E7F0E0808191819093470180934601E1
S11304A0808191818F3F934039F48FEF90E0909356
S11304B04501809344010CC08091780090917900AB
S11304C096958795969587959093450180934401D9
S11304D0FF91EF919F918F912F910F900FBE0F90ED
S11304E01F9018958EEF87B99FEF94B991E49AB94C
S11304F09DEC9BB988B992E094BD83E085BD29EF5A
S113050027BD90936E009AE0909369008DBB94E0B0
S11305109093680092E390936D0090EC90937C002C
S11305209FEE90937A0010927B009EE390937E005E
S113053093EA94BD85BD78940E949E0480913E0107
S113054090913F01019759F46091000180E090E09F
S11305500E94F50760E081E090E00E94F50781E0E9
S113056090E00E94ED078F3F31F46091400181E0FB
S113057090E00E94F50780E090E00E94ED078F3F35
S113058031F46091000180E090E00E94F50781E081
S113059090E00E94ED0790E0909341018093400128
S11305A060910001709101017695679580E090E07B
S11305B00E948E0623EC35EF48EC50E40E941C07A1
S11305C020E030E543EC57E40E94ED056B017C012B
S11305D0609152017091530180E090E00E948E0678
S11305E0A70196010E941C0720E030E040E752E496
S11305F00E941C070E945F0670934F0160934E0196
S11306004091480150914901469F9001479F300D08
S1130610569F300D1124C90160E17EE00E949507C8
S11306208091400190914101EB01C80FD91FD093F3
S11306305101C093500180E090E00E94ED0790E0EA
S113064090930101809300016C2F81E090E00E945F
S1130650F5078091440187BD0E94F60461E082E0C1
S113066091E00E94BE056AE080E00E94CF0561E04F
S113067081E191E00E94BE054AE06EE473E080915E
S11306800001909101010E94B8076AE087E30E948B
S1130690CF0561E08EE493E00E94BE0564E180E052
S11306A00E94CF0561E08BE191E00E94BE054AE023
S11306B06EE473E080915201909153010E94B80757
S11306C064E18EE10E94CF0561E08EE493E00E9434
S11306D0BE054AE06EE473E08091500190915101AF
S11306E00E94B80761E282E30E94CF0562E08EE4D3
S11306F093E00E94BE0563E289E40E94CF0561E0B5
S113070080E291E00E94BE056EE180E00E94CF0588
S113071061E083E291E00E94BE054AE06EE473E08A
S113072080914601909147010E94B8076EE189E1EA
S11307300E94CF0561E08EE493E00E94BE058091A3
S11307404201909143018530910551F468E280E0C3
S11307500E94CF0561E088E291E00E94BE0518C0C6
S11307608B30910551F468E280E00E94CF0561E08E
S11307708FE291E00E94BE050BC00D9749F468E238
S113078080E00E94CF0561E086E391E00E94BE050F
S11307900E94D40585B1807885B985B1806685B914
S11307A045B1E0914E01F0914F019F01ADECBCECDD
S11307B00E94A9079695879596958795969587950E
S11307C09C01220F331F880F991F880F991F880FD0
S11307D0991F820F931F9F01281B390BC9018F702A
S11307E0842B85B98FED9EE20197F1F700C00000DC
S11307F085B1807885B985B1806585B945B1209189
S11308004E0130914F010E94A907FC01F695E7952E
S1130810F695E795F695E7959F010E94A9079695A9
S1130820879596958795969587959C01220F331FFA
S1130830880F991F880F991F880F991F820F931F84
S11308409F01281B390BC9018F70842B85B98FED4B
S11308509EE20197F1F700C0000085B1807885B968
S113086085B1806385B945B120914E0130914F0126
S11308703695279536952795ABE7B4E10E94A907ED
S1130880FC01F695E7959F01ADECBCEC0E94A9072D
S11308909695879596958795969587959C01220FB1
S11308A0331F880F991F880F991F880F991F820F74
S11308B0931F9F01281B390BC9018F70842B85B9A5
S11308C08FED9EE20197F1F700C0000069CE98B168
S11308D09D7F98B9662329F098B1986098B990E003
S11308E01FC098B1977F98B9FACF47E050E0491BF1
S11308F05109282F30E002C0359527954A95E2F733
S113090020FF04C028B1206128B903C028B12F7E7C
S113091028B928B1206228B928B12F7D28B99F5F52
S1130920983018F388B1826088B9089560E00E9415
S11309306704089561E00E9467040895CF93DF93EC
S113094087B1826087B987B1846087B987B18860CD
S113095087B987B1806187B987B1806287B988B167
S1130960846088B988B1826088B983EC99E0019782
S1130970F1F700C0000088B18B7F88B98BE594E45F
S11309800197F1F700C0000088B1846088B988B18C
S11309908D7F88B981E20E94960483E10E949604C7
S11309A086E00E94960482EC0E94960480E20E94F3
S11309B0960489E00E94960480E80E94960480E4EC
S11309C00E949604C0E0D0E004C080E00E949A0433
S11309D02196C83F91E0D907C0F388E00E949604AD
S11309E08CE00E949604DF91CF91089580E80E94E4
S11309F0960480E40E94960410924C0310924D03D6
S1130A0080E090E005C0FC01EC5AFE4F1082019694
S1130A10883F21E09207B8F30895262F269526955E
S1130A20269590E034E5239F800D911D11244423E5
S1130A3079F0677021E030E002C0220F331F6A951D
S1130A40E2F7FC01EC5AFE4F8081282B20830895A5
S1130A50677021E030E002C0220F331F6A95E2F78D
S1130A60FC01EC5AFE4F20958081282320830895B1
S1130A70EF92FF920F931F93CF93DF93E82EF62EFE
S1130A8000E045C02E2D30E020523109802F6F2D1B
S1130A900E948907F901EE0FFF1FEE0FFF1FE20FFF
S1130AA0F31FE80FF11DE859FF4FE491812F0E94D5
S1130AB08907F0E002C0F595E7958A95E2F7E0FF33
S1130AC00AC060914D0380914C03610F41E0800F97
S1130AD00E940D0509C060914D0380914C03610F84
S1130AE040E0800F0E940D051F5F01C010E0212F20
S1130AF030E0CE01880F991F880F991F880F991F26
S1130B008C1B9D0B281739070CF4BCCF0F5F202FCB
S1130B1030E0CF2DD0E0CE01880F991F880F991FA8
S1130B208C0F9D1F281739070CF3ECE4F3E08F2D8D
S1130B30880F880F8F0D9081890F8F5F8083843594
S1130B4070F010924C03EDE4F3E08F2D880F880FC2
S1130B50880F982F9F198081890F8F5F80838091E0
S1130B604D03803320F010924C0310924D03DF911B
S1130B70CF911F910F91FF90EF9008951F93CF9302
S1130B80DF93EC01162F04C02196612F0E943805D3
S1130B9088818111F9CFDF91CF911F9108958093BE
S1130BA04C0360934D030895CF93DF9380E80E9434
S1130BB0960480E40E949604C0E0D0E007C0FE01E1
S1130BC0EC5AFE4F80810E949A042196C83F81E02E
S1130BD0D807A8F3DF91CF9108950E9401060C94E1
S1130BE0E2060E94DB0658F00E94D40640F029F485
S1130BF05F3F29F00C94CB0651110C9416070C940A
S1130C00D1060E94F30668F39923B1F3552391F3B7
S1130C10951B550BBB27AA2762177307840738F067
S1130C209F5F5F4F220F331F441FAA1FA9F335D0C4
S1130C300E2E3AF0E0E832D091505040E695001C78
S1130C40CAF72BD0FE2F29D0660F771F881FBB1F32
S1130C50261737074807AB07B0E809F0BB0B802D10
S1130C60BF01FF2793585F4F3AF09E3F510578F03C
S1130C700C94CB060C9416075F3FE4F3983ED4F330
S1130C80869577956795B795F7959F5FC9F7880F10
S1130C90911D9695879597F90895E1E0660F771F62
S1130CA0881FBB1F621773078407BA0720F0621BF3
S1130CB0730B840BBA0BEE1F88F7E09508950E941E
S1130CC0FB0688F09F5798F0B92F9927B751B0F0D9
S1130CD0E1F0660F771F881F991F1AF0BA95C9F7BC
S1130CE014C0B13091F00E941507B1E008950C943E
S1130CF01507672F782F8827B85F39F0B93FCCF3F1
S1130D00869577956795B395D9F73EF49095809538
S1130D10709561957F4F8F4F9F4F0895E89409C058
S1130D2097FB3EF490958095709561957F4F8F4F1A
S1130D309F4F9923A9F0F92F96E9BB279395F69530
S1130D40879577956795B795F111F8CFFAF4BB0FAE
S1130D5011F460FF1BC06F5F7F4F8F4F9F4F16C012
S1130D60882311F096E911C0772321F09EE8872F9C
S1130D70762F05C0662371F096E8862F70E060E058
S1130D802AF09A95660F771F881FDAF7880F9695D1
S1130D90879597F9089597F99F6780E870E060E078
S1130DA008959FEF80EC089500240A941616170600
S1130DB018060906089500240A9412161306140648
S1130DC005060895092E0394000C11F4882352F0AB
S1130DD0BB0F40F4BF2B11F460FF04C06F5F7F4F63
S1130DE08F4F9F4F089557FD9058440F551F59F04A
S1130DF05F3F71F04795880F97FB991F61F09F3F04
S1130E0079F087950895121613061406551FF2CF2C
S1130E104695F1DF08C0161617061806991FF1CF7C
S1130E2086957105610508940895E894BB276627A3
S1130E307727CB0197F908950E942F070C94E206B7
S1130E400E94D40638F00E94DB0620F0952311F0AE
S1130E500C94CB060C94D10611240C9416070E9412
S1130E60F30670F3959FC1F3950F50E0551F629FF1
S1130E70F001729FBB27F00DB11D639FAA27F00DEF
S1130E80B11DAA1F649F6627B00DA11D661F829F16
S1130E902227B00DA11D621F739FB00DA11D621FFB
S1130EA0839FA00D611D221F749F3327A00D611D18
S1130EB0231F849F600D211D822F762F6A2F1124FA
S1130EC09F5750409AF0F1F088234AF0EE0FFF1F2D
S1130ED0BB1F661F771F881F91505040A9F79E3F84
S1130EE0510580F00C94CB060C9416075F3FE4F395
S1130EF0983ED4F3869577956795B795F795E795DA
S1130F009F5FC1F7FE2B880F911D9695879597F9E2
S1130F100895991B79E004C0991F961708F0961B51
S1130F20881F7A95C9F780950895AA1BBB1B51E1C8
S1130F3007C0AA1FBB1FA617B70710F0A61BB70B45
S1130F40881F991F5A95A9F780959095BC01CD01EA
S1130F500895A29FB001B39FC001A39F700D811D8E
S1130F601124911DB29F700D811D1124911D0895AE
S1130F70BB274A3031F4992322F4BDE29095819540
S1130F809F4F0C94C407BB27FB015527AA27880F42
S1130F90991FAA1FA41710F0A41B83955051B9F7E9
S1130FA0A05DAA3308F0A95DA193009779F7B11168
S1130FB0B1931192CB010C94DD07DC01FC01672F86
S1130FC071917723E1F7329704C07C916D9370831C
S1130FD06291AE17BF07C8F30895F999FECF92BD89
S1130FE081BDF89A992780B50895262FF999FECFE7
S1130FF01FBA92BD81BD20BD0FB6F894FA9AF99A32
S10D10000FBE01960895F894FFCF87
S113100A3200434F4D502E20444520424F52444F04
S113101A004469616D28636D293A0052504D3A00C3
S113102A4B6D004144433A004D6F646F3A50004D92
S111103A6F646F3A44004D6F646F3A520000C9
S9030000FC
