:100000000C9454010C9473010C94A3010C94710191
:100010000C9471010C943D020C9471010C947101CB
:100020000C9471010C9471010C9451030C947101A6
:100030000C9471010C9471010C94D3010C94710116
:100040000C9471010C9471010C94E2030C947101F5
:100050000C9471010C9465020C9471010C94710163
:100060000C9471010C947101050000000000050062
:10007000005F000005000700070005147F147F14CF
:1000800005242A7F2A12052313086462053649567F
:10009000205005080703000005001C224100050050
:1000A00041221C000514083E08140508083E0808F3
:1000B0000500B07000000508080808080500606029
:1000C0000000052010080402053E5149453E050088
:1000D000427F4000057249494946052141494D3357
:1000E000051814127F10052745454539053C4A4936
:1000F0004931054121110907053649494936054667
:100100004949291E05000014000005004034000084
:100110000508142241000514141414140541221476
:100120000800050201590906053E415D594E057C4E
:100130001211127C057F49494936053E4141412251
:10014000057F4141413E057F49494949057F0909EC
:100150000909053E41415173057F0808087F0500E4
:10016000417F4100052040413F01057F08142241A5
:10017000057F40404040057F020C027F057F040858
:10018000107F053E4141413E057F09090906053EB4
:100190004151215E057F0919294605264949493201
:1001A0000501017F0101053F4040403F051F204000
:1001B000201F053F4038403F0563140814630503C2
:1001C0000478040305615149454305007F4141001E
:1001D000050204081020050041417F0005040201CA
:1001E000020405404040404005070B000000052088
:1001F00054547840057F2844443805384444442802
:1002000005384444287F0538545454180500087EA6
:1002100009020518A4A49C78057F08040478050049
:10022000447D4000052040403D00057F10284400EB
:100230000500417F4000057C04780478057C0804B3
:10024000047805384444443805FC1824241805185B
:10025000242418FC057C080404080548545454243C
:100260000504043F4424053C4040207C051C2040FC
:10027000201C053C4030403C054428102844054CD7
:100280009090907C054464544C440500083641002D
:10029000050000770000050041360800050402044F
:1002A000080405007F417F0011241FBECFEFD8E076
:1002B000DEBFCDBF11E0A0E0B1E0E2EDF8E102C0A9
:1002C00005900D92AC34B107D9F725E0ACE4B1E06C
:1002D00001C01D92A638B207E1F70E9438040C94C1
:1002E000670C0C9400001F920F920FB60F9211240E
:1002F0002F933F934F935F936F937F938F939F932E
:10030000AF93BF93EF93FF93609100017091010150
:100310006F5F7F4F709301016093000180E090E078
:100320000E94590CFF91EF91BF91AF919F918F91D6
:100330007F916F915F914F913F912F910F900FBEE1
:100340000F901F9018951F920F920FB60F921124C5
:100350002F933F934F935F936F937F938F939F93CD
:10036000AF93BF93EF93FF936091000170910101F0
:1003700061507109709301016093000180E090E089
:100380000E94590CFF91EF91BF91AF919F918F9176
:100390007F916F915F914F913F912F910F900FBE81
:1003A0000F901F9018951F920F920FB60F92112465
:1003B0002F933F934F935F936F937F938F939F936D
:1003C000AF93BF93EF93FF9340916A0150916B01FC
:1003D0004F5F5F4F50936B0140936A019A013695CE
:1003E00027953695279536952795A5ECB0E20E947E
:1003F0000D0C929582958F7089279F70892768EEE2
:1004000073E0869F9001879F300D969F300D1124D9
:100410004217530709F5609168017091690180E006
:1004200090E00E94DC0A20E030E040E752E40E94C5
:100430006A0B0E94AD0A7093710160937001109273
:10044000690110926801809166019091670101969F
:100450009093670180936601FF91EF91BF91AF91F7
:100460009F918F917F916F915F914F913F912F91CC
:100470000F900FBE0F901F9018951F920F920FB6FE
:100480000F9211248F939F934F9909C08091680117
:10049000909169010196909369018093680189B1F7
:1004A0008BE090E090935901809358014C9906C0DD
:1004B00085E090E090935901809358019F918F912E
:1004C0000F900FBE0F901F9018951F920F920FB6AE
:1004D0000F9211242F933F934F935F936F937F93CA
:1004E0008F939F93AF93BF93EF93FF93309953C034
:1004F000E8E7F0E080819181909365018093640149
:10050000808191818F3F934059F48FEF90E09093D9
:100510005B0180935A0190937501809374013BC0F5
:10052000E8E7F0E08081918196958795969587958B
:1005300090935B0180935A01808191819695879574
:1005400096958795909375018093740180914C01E5
:1005500090914D01A0914E01B0914F018C3221E05C
:100560009207A105B10568F420916C0130916D01ED
:100570002531310530F026E630E0309375012093C7
:100580007401892B8A2B8B2B31F481E090E09093BE
:10059000750180937401319939C0E8E7F0E08081FA
:1005A00091819093630180936201808191818F3F5B
:1005B000934069F48FEF90E0909361018093600124
:1005C00084E690E090937901809378011FC0809138
:1005D0007800909179009695879596958795909358
:1005E00061018093600144E6489F9001499F300D6E
:1005F0001124A1E8B0E80E940D0C880F892F881FF4
:10060000990B91959093790180937801329938C034
:10061000E8E7F0E08081918190935F0180935E0133
:10062000808191818F3F934069F48FEF90E09093A8
:100630005D0180935C0189EB91E090937701809359
:1006400076011EC06091780070917900769567956B
:100650007695679570935D0160935C0169567109A9
:1006600080E090E00E94DC0A2BE734E14EEA5EE392
:100670000E943B0A0E94AD0A709377016093760155
:10068000FF91EF91BF91AF919F918F917F916F916A
:100690005F914F913F912F910F900FBE0F901F9040
:1006A00018951F920F920FB60F9211240F931F935C
:1006B0002F933F934F935F936F937F938F939F936A
:1006C000AF93BF93EF93FF938091810086FF0FC09C
:1006D0008091860090918700A0E0B0E08093500167
:1006E00090935101A0935201B093530140C0609187
:1006F000860070918700CB01A0E0B0E0009150012E
:10070000109151012091520130915301801B910BA6
:10071000A20BB30B880F991FAA1FBB1F880F991F2D
:10072000AA1FBB1FBC01CD01660F771F881F991F31
:10073000660F771F881F991F2AE330E040E050E0E2
:100740000E94EB0B20934C0130934D0140934E01DE
:1007500050934F012C3B36404105510541F4109216
:100760004C0110924D0110924E0110924F01E1E8A0
:10077000F0E0908180E489278083FF91EF91BF9121
:10078000AF919F918F917F916F915F914F913F9129
:100790002F911F910F910F900FBE0F901F901895E2
:1007A0009093C5008093C40088E98093C1008EE0D7
:1007B0008093C20008959091C00095FFFCCF809374
:1007C000C60008951F920F920FB60F9211242F9317
:1007D0003F934F935F936F937F938F939F93AF93C9
:1007E000BF93CF93DF93EF93FF934AE06AE771E003
:1007F00080917201909173010E941C0CC091C600FF
:10080000CC3629F460E08CE090E00E94590CC436AC
:10081000E1F402C0CF5F01C0C0E0EC2FF0E0E65889
:10082000FE4F80818111F6CFD0E009C0ED2FF0E0BE
:10083000E658FE4F808190E00E94DB03DF5FDC170B
:10084000A8F380E290E00E94DB03FF91EF91DF913B
:10085000CF91BF91AF919F918F917F916F915F9158
:100860004F913F912F910F900FBE0F901F901895B1
:1008700088EF87B99EEF94B991E49AB99DE49BB94A
:1008800088B981E085B992E094BD83E085BD29EF08
:1008900027BD90936E009AE0909369008DBB94E021
:1008A0009093680090EB90936D009FEE90937A0088
:1008B00010927B0098E390937E0093EA94BD85BDEF
:1008C00084E48093810080E280936F0087E690E06B
:1008D0000E94D00378948091540190915501019722
:1008E00059F46091000180E090E00E94590C60E0B2
:1008F00081E090E00E94590C81E090E00E94510C50
:100900008F3F31F46091560181E090E00E94590CD4
:1009100080E090E00E94510C8F3F31F46091000123
:1009200080E090E00E94590C8CE090E00E94510C15
:100930008F3F29F460E08CE090E00E94590C81E048
:1009400090E00E94510C90E09093570180935601E3
:100950000E94000820E048E065E088E690E00E9400
:1009600089080E94790860910001709101017695D3
:10097000679580E090E00E94DC0A23EC35EF48ECBC
:1009800050E40E946A0B20E030E543EC57E40E94FB
:100990003B0A6B017C01609170017091710180E0F4
:1009A00090E00E94DC0AA70196010E946A0B20E0F9
:1009B00030E040E752E40E946A0B0E94AD0A709357
:1009C0006D0160936C014091660150916701469FF3
:1009D0009001479F300D569F300D1124C90160E1F1
:1009E0007EE00E94D70B8091560190915701EB0158
:1009F000C80FD91FD0936F01C0936E0180E090E0C3
:100A00000E94510C90E090930101809300016C2FA3
:100A100081E090E00E94590C0E94750861E086E137
:100A20000E94F70782E091E00E94B9096FE080E040
:100A30000E94F70781E191E00E94B9096FE087E326
:100A40000E94F707609100017091010180E090E041
:100A50000E94D0096CE180E00E94F7078BE191E0F1
:100A60000E94B9096CE189E10E94F7076091700169
:100A70007091710180E090E00E94D00966E380E00F
:100A80000E94F70780E291E00E94B90966E385E2DF
:100A90000E94F70760914C0170914D0180914E01C9
:100AA00090914F010E94D00963E48AE50E94F70704
:100AB00060916E0170916F0180E090E00E94D0091A
:100AC00063E48EE60E94F70787E291E00E94B9098D
:100AD000CCE7D0E080EC88832FEF31EE84E021502A
:100AE00030408040E1F700C000008091740187BD74
:100AF00069E288E20E94F70760915A0170915B01F8
:100B000080E090E00E94D00969E280E00E94F7074F
:100B10008AE291E00E94B90981EC88839FEF21EE7F
:100B200034E0915020403040E1F700C0000068E21E
:100B30008AE50E94F707609178017091790180E061
:100B400090E00E94D00968E28EE60E94F70781E3F8
:100B500091E00E94B90982EC88838FEF91EE24E046
:100B6000815090402040E1F700C000006CE18AE530
:100B70000E94F707609176017091770180E090E024
:100B80000E94D0096CE18EE60E94F70783E391E0B2
:100B90000E94B9098CE090E00E94510C90E0909383
:100BA00073018093720160917601709177018617CD
:100BB000970720F48CE090E00E94590C8091580136
:100BC000909159018B30910549F46FE08AE50E94BC
:100BD000F70786E391E00E94B9090AC00D9741F436
:100BE0006FE08AE50E94F7078DE391E00E94B90962
:100BF0008091580190915901059741F46FE08AE581
:100C00000E94F70784E491E00E94B9090E94C90795
:100C100085B1817085B985B1806C85B945B1E091A8
:100C20006C01F0916D019F01ADECBCEC0E940D0CCC
:100C30009695879596958795969587959C01220F11
:100C4000331F880F991F880F991F880F991F820FD4
:100C5000931F9F01281B390BC901880F8E71842BAC
:100C600085B98FED9EE20197F1F700C0000085B1D4
:100C7000817085B985B1806A85B945B120916C01D3
:100C800030916D010E940D0CFC01F695E795F695EB
:100C9000E795F695E7959F010E940D0C969587952F
:100CA00096958795969587959C01220F331F880FFF
:100CB000991F880F991F880F991F820F931F9F01FB
:100CC000281B390BC901880F8E71842B85B98FEDD4
:100CD0009EE20197F1F700C0000085B1817085B9EF
:100CE00085B1806685B945B120916C0130916D0167
:100CF0003695279536952795ABE7B4E10E940D0C04
:100D0000FC01F695E7959F01ADECBCEC0E940D0C43
:100D10009695879596958795969587959C01220F30
:100D2000331F880F991F880F991F880F991F820FF3
:100D3000931F9F01281B390BC901880F8E71842BCB
:100D400085B98FED9EE20197F1F700C000000BCE50
:100D5000669566956695E82FF0E080E8689FE00D5F
:100D6000F11D1124EA57FE4F40830895669566955C
:100D70006695E82FF0E080E8689FE00DF11D1124F2
:100D8000EA57FE4F80810895CF93DF93DC01CB01BA
:100D9000FA0120E322872187208727832683258362
:100DA00024832383228321832083BB234CF4B095A7
:100DB000A095909581959F4FAF4FBF4F31E008C0F0
:100DC00030E006C09A5CAA49BB4321812F5F218392
:100DD00081152AEC92072AE9A2072BE3B20794F7C0
:100DE00006C0915EA54FB54022812F5F22838115F9
:100DF00021EE920725EFA20725E0B20794F707C07E
:100E000080589649A849B10923812F5F23838038F0
:100E100026E9920728E9A207B10594F707C0805494
:100E20009244AF40B10924812F5F2483803422E4AF
:100E300092072FE0A207B10594F707C0805A9648A1
:100E4000A140B10925812F5F2583803A26E89207CA
:100E500021E0A207B10594F707C080519742A1098C
:100E6000B10926812F5F2683803127E29207A105F1
:100E7000B1059CF707C0885E9340A109B10927819D
:100E80002F5F2783883E23E09207A105B1059CF7D9
:100E900007C084569109A109B10920852F5F2087D9
:100EA00084369105A105B105A4F706C00A97A109EA
:100EB000B10921852F5F21878A309105A105B105F0
:100EC000ACF706C00197A109B10922852F5F2287DF
:100ED000181619061A061B06ACF320E001C02F5F96
:100EE000DF01A20FB11D8C918033C9F3332331F0A0
:100EF0002150DF01A20FB11D8DE28C934AE0421B0D
:100F000030E00DC0832F90E0EF01C80FD91F820F92
:100F1000911DDF01A80FB91F8C9188833F5F431794
:100F200088F7E30FF11D1082DF91CF9108950F93A1
:100F30001F93CF93DF93C82F8B01D42F0E941D0ADC
:100F400088E70E942F0A8C2F0E942F0AC0E007C05A
:100F5000F801EC0FF11D80810E942F0ACF5FCD17A1
:100F6000B8F30E94270ADF91CF911F910F91089546
:100F7000CF93DF931F92CDB7DEB7898341E0BE01E7
:100F80006F5F7F4F80E00E9497070F90DF91CF91B6
:100F90000895CF9381E20E94B80780E00E94B807CD
:100FA0008FE70E94B80782E20E94B80780E00E94A3
:100FB000B80787E00E94B807C0E00BC080E1C89F77
:100FC000B00111246A577E4F40E180E40E949707E8
:100FD000CF5FC03498F3CF910895882314F08093A5
:100FE0007D010895803410F480937E010895CF939D
:100FF000C62F0E94ED078C2F0E94F207CF91089513
:101000000E94040A8EEA0E94B80785ED0E94B80784
:1010100080EF0E94B80788EA0E94B8078FE30E9419
:10102000B80783ED0E94B80780E00E94B8078DE8FA
:101030000E94B80784E10E94B80780E40E94B807C4
:1010400080E20E94B80780E00E94B80781EA0E940F
:10105000B80788EC0E94B8078AED0E94B80782E1C1
:101060000E94B80781E80E94B8078FEF0E94B80776
:1010700089ED0E94B80781EF0E94B8078BED0E94AE
:10108000B80780E20E94B80784EA0E94B80786EA9F
:101090000E94B8078EE20E94B8078FEA0E94B80744
:1010A00060E080E00E94F707EDE7F1E086EA8283E6
:1010B0001782168215821182108208951F93CF9392
:1010C000DF93182FD0E00BC0412F6D2F8C2F0E9483
:1010D000A806CF5F01C0C0E0CC23B4F7D85FD034FE
:1010E000D0F3DF91CF911F91089580E00E945E08B8
:1010F000089580917F01873A21F486EA80937F01E9
:1011000003C087EA80937F0180917F010E94B80726
:1011100008956623E4F04034D0F42230C0F4EDE7C3
:10112000F1E0948383836583468350E04150510905
:10113000CA0199230CF407969595879595958795FF
:1011400095958795EDE7F1E08F5F87832087089578
:101150004F925F926F927F928F929F92AF92BF92C7
:10116000CF92DF92EF92FF920F931F93CF93DF9373
:10117000ADE7B1E05C9011964C90119780521596B6
:101180009C91159717962C911797929F9001112477
:101190002F5F3F4F829FA001839F500D1124139614
:1011A000ED91FC9114975A018FEFA81AB80AE40F39
:1011B000F51F7490842D8770982E642C812C5FC04D
:1011C000662D852D0E94F7077501E80CF11C67015B
:1011D00081E0C81AD10810E041C08091800190914F
:1011E0008101FC01EE0DFF1D2491492D50E030E0FE
:1011F000092C02C0220F331F0A94E2F7022F882025
:10120000A1F0FC01EC0DFD1DE49188E090E0841B51
:10121000950BF0E002C0F595E7958A95E2F70E2F61
:10122000022B80918401C80ED11C809185018130F0
:1012300039F4EDE7F1E0618180810E94B606082B68
:10124000CDE7D1E06981888191E0980F9883402FA4
:101250000E94A8068F81E80EF11C1F5F171508F485
:10126000BCCF80918501811107C0EDE7F1E040E03E
:10127000618180810E94A80688E0680E8394809135
:101280008401881608F49CCF242D26952695269552
:1012900030E08091830190E0840D911D0197AC01B5
:1012A00012F4495F5F4F559547955595479555956C
:1012B00047952417350709F445C08FE3861508F4D0
:1012C00041C0662D852D0E94F707A80CB11C81E056
:1012D000A81AB10800E029C0CDE7D1E0F980188153
:1012E0006F2D812F0E94B606EB81FC81EA0DFB1D5C
:1012F000449128E030E02919310950E002C05595A9
:1013000047952A95E2F7482B9885913009F4482BA8
:10131000CDE7D1E081E0810F88836F2D812F0E947E
:10132000A8068F81A80EB11C0F5F0715A8F2809147
:101330008501811107C0EDE7F1E040E06181808126
:101340000E94A806852D870D642D8F5F0E94F707E8
:10135000DF91CF911F910F91FF90EF90DF90CF9091
:10136000BF90AF909F908F907F906F905F904F90C5
:101370000895CF93DF93EC010DC0EDE7F1E090818C
:10138000258130E0290F311D2038310534F42196B4
:101390000E94A80888818111F0CFDF91CF91089534
:1013A0000F931F93CF93DF93CDB7DEB72C970FB674
:1013B000F894DEBF0FBECDBF6115710581059105A3
:1013C00021F480E30E94A80814C06115710581050D
:1013D00020E8920771F08E010F5F1F4F2CE0F8019B
:1013E00011922A95E9F7A8010E94C406C8010E943B
:1013F000B9092C960FB6F894DEBF0FBECDBFDF91B2
:10140000CF911F910F91089587B1806187B987B1FE
:10141000806287B988B1806188B988B1806288B9F3
:101420001092B90088E48093B80084E08093BC00F7
:1014300008958091B900887F089584EA8093BC0064
:101440008091BC008823E4F70E94190A089585ED75
:101450008093BC008091BC0084FDFCCF08958093F4
:10146000BB0084E88093BC008091BC008823E4F733
:101470000E94190A08950E944F0A0C94300B0E9492
:10148000290B58F00E94220B40F029F45F3F29F00D
:101490000C94190B51110C94640B0C941F0B0E94AB
:1014A000410B68F39923B1F3552391F3951B550B29
:1014B000BB27AA2762177307840738F09F5F5F4F27
:1014C000220F331F441FAA1FA9F335D00E2E3AF066
:1014D000E0E832D091505040E695001CCAF72BD07E
:1014E000FE2F29D0660F771F881FBB1F26173707CF
:1014F0004807AB07B0E809F0BB0B802DBF01FF2701
:1015000093585F4F3AF09E3F510578F00C94190BB9
:101510000C94640B5F3FE4F3983ED4F38695779583
:101520006795B795F7959F5FC9F7880F911D9695B9
:10153000879597F90895E1E0660F771F881FBB1F15
:10154000621773078407BA0720F0621B730B840BC2
:10155000BA0BEE1F88F7E09508950E94490B88F0BA
:101560009F5798F0B92F9927B751B0F0E1F0660F67
:10157000771F881F991F1AF0BA95C9F714C0B130A8
:1015800091F00E94630BB1E008950C94630B672FF8
:10159000782F8827B85F39F0B93FCCF386957795D7
:1015A0006795B395D9F73EF49095809570956195C0
:1015B0007F4F8F4F9F4F0895E89409C097FB3EF4EB
:1015C00090958095709561957F4F8F4F9F4F992390
:1015D000A9F0F92F96E9BB279395F695879577950E
:1015E0006795B795F111F8CFFAF4BB0F11F460FFCE
:1015F0001BC06F5F7F4F8F4F9F4F16C0882311F026
:1016000096E911C0772321F09EE8872F762F05C039
:10161000662371F096E8862F70E060E02AF09A95D4
:10162000660F771F881FDAF7880F9695879597F9C9
:10163000089597F99F6780E870E060E008959FEF54
:1016400080EC089500240A94161617061806090659
:10165000089500240A941216130614060506089528
:10166000092E0394000C11F4882352F0BB0F40F4B0
:10167000BF2B11F460FF04C06F5F7F4F8F4F9F4FF0
:10168000089557FD9058440F551F59F05F3F71F072
:101690004795880F97FB991F61F09F3F79F08795D9
:1016A0000895121613061406551FF2CF4695F1DF62
:1016B00008C0161617061806991FF1CF86957105F2
:1016C000610508940895E894BB2766277727CB0126
:1016D00097F908950E947D0B0C94300B0E94220B09
:1016E00038F00E94290B20F0952311F00C94190B6F
:1016F0000C941F0B11240C94640B0E94410B70F38B
:10170000959FC1F3950F50E0551F629FF001729FA6
:10171000BB27F00DB11D639FAA27F00DB11DAA1FB5
:10172000649F6627B00DA11D661F829F2227B00D02
:10173000A11D621F739FB00DA11D621F839FA00D8D
:10174000611D221F749F3327A00D611D231F849FDD
:10175000600D211D822F762F6A2F11249F57504034
:101760009AF0F1F088234AF0EE0FFF1FBB1F661FAF
:10177000771F881F91505040A9F79E3F510580F078
:101780000C94190B0C94640B5F3FE4F3983ED4F374
:10179000869577956795B795F795E7959F5FC1F71C
:1017A000FE2B880F911D9695879597F90895AA1B92
:1017B000BB1B51E107C0AA1FBB1FA617B70710F03C
:1017C000A61BB70B881F991F5A95A9F7809590956E
:1017D000BC01CD010895A1E21A2EAA1BBB1BFD017D
:1017E0000DC0AA1FBB1FEE1FFF1FA217B307E40700
:1017F000F50720F0A21BB30BE40BF50B661F771F58
:10180000881F991F1A9469F7609570958095909537
:101810009B01AC01BD01CF010895A29FB001B39F10
:10182000C001A39F700D811D1124911DB29F700DE9
:10183000811D1124911D0895BB274A3031F499234D
:1018400022F4BDE2909581959F4F0C94280CBB2704
:10185000FB015527AA27880F991FAA1FA41710F06C
:10186000A41B83955051B9F7A05DAA3308F0A95D78
:10187000A193009779F7B111B1931192CB010C9418
:10188000410CDC01FC01672F71917723E1F732975E
:1018900004C07C916D9370836291AE17BF07C8F34B
:1018A0000895F999FECF92BD81BDF89A992780B528
:1018B0000895262FF999FECF1FBA92BD81BD20BD94
:1018C0000FB6F894FA9AF99A0FBE01960895F89413
:0218D000FFCF48
:1018D2003200434F4D502E20444520424F52444F38
:1018E200004469616D28636D293A0052504D3A00F7
:1018F200536F6E61723A004B6D004163656C653ADD
:101902000025002743004D6F646F3A44004D6F6419
:0C1912006F3A52004D6F646F3A500000B5
:00000001FF
