S01C00004D617465757350657265697261537072696E74342E737265631D
S11300000C9424010C9443010C9473010C9441014D
S11300100C9441010C940D020C9441010C94410187
S11300200C9441010C9441010C949C020C944101E8
S11300300C9441010C9441010C94A3010C944101D2
S11300400C9441010C9441010C9441010C94410124
S11300500C9441010C943D020C9441010C94410117
S11300600C9441010C944101000000000000005F69
S113007000000007000700147F147F14242A7F2A3D
S11300801223130864623649552250000503000008
S1130090001C2241000041221C0014083E081408E0
S11300A0083E0808005030000008080808080060EE
S11300B060000020100804023E5149453E00427F82
S11300C0400042615149462141454B311814127F89
S11300D01027454545393C4A494930017109050312
S11300E03649494936064949291E0036360000007A
S11300F0563600000814224100141414141400414C
S11301002214080201510906324979413E7E111137
S1130110117E7F494949363E414141227F41412276
S11301201C7F494949417F090909013E4149497AEE
S11301307F0808087F00417F41002040413F017F44
S1130140081422417F404040407F020C027F7F041C
S113015008107F3E4141413E7F090909063E415155
S1130160215E7F09192946464949493101017F0128
S1130170013F4040403F1F2040201F3F4038403F48
S11301806314081463070870080761514945430064
S11301907F41410002040810200041417F00040215
S11301A00102044040404040000102040020545435
S11301B054787F48444438384444442038444448BC
S11301C07F3854545418087E0901020C5252523E8E
S11301D07F0804047800447D40002040443D007FB3
S11301E01028440000417F40007C041804787C08F7
S11301F004047838444444387C141414080814144F
S1130200187C7C080404084854545420043F444097
S1130210203C4040207C1C2040201C3C4030403C82
S113022044281028440C5050503C4464544C44001E
S11302300836410000007F00000041360800100825
S1130240081008000000000011241FBECFEFD8E002
S1130250DEBFCDBF11E0A0E0B1E0E8EDF1E102C006
S113026005900D92AE33B107D9F723E0AEE3B1E0C8
S113027001C01D92A636B207E1F70E941B030C943D
S1130280EA080C9400001F920F920FB60F921124EB
S11302902F933F934F935F936F937F938F939F938A
S11302A0AF93BF93EF93FF936091000170910101AD
S11302B06F5F7F4F709301016093000180E090E0D5
S11302C00E94DC08FF91EF91BF91AF919F918F91B4
S11302D07F916F915F914F913F912F910F900FBE3E
S11302E00F901F9018951F920F920FB60F92112422
S11302F02F933F934F935F936F937F938F939F932A
S1130300AF93BF93EF93FF9360910001709101014C
S113031061507109709301016093000180E090E0E5
S11303200E94DC08FF91EF91BF91AF919F918F9153
S11303307F916F915F914F913F912F910F900FBEDD
S11303400F901F9018951F920F920FB60F921124C1
S11303502F933F934F935F936F937F938F939F93C9
S1130360AF93BF93EF93FF93409154015091550184
S11303704F5F5F4F50935501409354019A01369556
S113038027953695279536952795A5ECB0E20E94DA
S11303909008929582958F7089279F70892768EEBF
S11303A073E0869F9001879F300D969F300D112436
S11303B04217530709F5609152017091530180E08F
S11303C090E00E94530720E030E040E752E40E94AE
S11303D0E1070E94240770935B0160935A01109215
S11303E05301109252018091500190915101019654
S11303F09093510180935001FF91EF91BF91AF9180
S11304009F918F917F916F915F914F913F912F9128
S11304100F900FBE0F901F9018951F920F920FB65A
S11304200F9211248F939F93499909C0809152018F
S113043090915301019690935301809352014D99E9
S113044007C08BE090E090934B0180934A0106C073
S11304508DE090E090934B0180934A014C9906C043
S113046085E090E090934B0180934A019F918F9196
S11304700F900FBE0F901F9018951F920F920FB6FA
S11304800F9211242F933F938F939F93AF93BF9316
S1130490EF93FF93E8E7F0E08081918190934F011F
S11304A080934E01808191818F3F934039F48FEF87
S11304B090E090934D0180934C010CC080917800A2
S11304C090917900969587959695879590934D018F
S11304D080934C0180913E0190913F01A091400195
S11304E0B09141018C3221E09207A105B10568F475
S11304F020915601309157012531310530F026E61F
S113050030E030934D0120934C01892B8A2B8B2BA7
S113051031F481E090E090934D0180934C01FF9180
S1130520EF91BF91AF919F918F913F912F910F9038
S11305300FBE0F901F9018951F920F920FB60F9237
S113054011240F931F932F933F934F935F936F93B4
S11305507F938F939F93AF93BF93EF93FF93809178
S1130560810086FF0FC08091860090918700A0E0F3
S1130570B0E08093420190934301A0934401B0936F
S1130580450140C06091860070918700CB01A0E0D6
S1130590B0E0009142011091430120914401309157
S11305A04501801B910BA20BB30B880F991FAA1F47
S11305B0BB1F880F991FAA1FBB1FBC01CD01660F6B
S11305C0771F881F991F660F771F881F991F2AE3BB
S11305D030E040E050E00E946E0820933E013093EA
S11305E03F0140934001509341012C3B364041056B
S11305F0510541F410923E0110923F0110924001C6
S113060010924101E1E8F0E0908180E48927808341
S1130610FF91EF91BF91AF919F918F917F916F91D6
S11306205F914F913F912F911F910F910F900FBEAA
S11306300F901F9018958EEF87B984B991E49AB9F9
S11306409DEC9BB988B981E085B992E094BD83E0C3
S113065085BD29EF27BD90936E009AE090936900C1
S11306608DBB94E09093680092E390936D0090ECBE
S113067090937C009FEE90937A0010927B009EE30F
S113068090937E0093EA94BD85BD84E480938100B9
S113069080E280936F0078940E9463058091460104
S11306A090914701019759F46091000180E090E036
S11306B00E94DC0860E081E090E00E94DC0881E0B8
S11306C090E00E94D4088F3F31F46091480181E0AA
S11306D090E00E94DC0880E090E00E94D4088F3F04
S11306E031F46091000180E090E00E94DC0881E038
S11306F090E00E94D40890E09093490180934801CF
S113070060910001709101017695679580E090E019
S11307100E94530723EC35EF48EC50E40E94E107B4
S113072020E030E543EC57E40E94B2066B017C0103
S113073060915A0170915B0180E090E00E94530740
S1130740A70196010E94E10720E030E040E752E46F
S11307500E94E1070E942407709357016093560199
S11307604091500150915101469F9001479F300D97
S1130770569F300D1124C90160E17EE00E945A08A1
S11307808091480190914901EB01C80FD91FD09382
S11307905901C093580180E090E00E94D40890E091
S11307A090930101809300016C2F81E090E00E94FE
S11307B0DC0880914C0187BD0E94BB0561E082E0AA
S11307C091E00E9483066AE080E00E94940661E062
S11307D081E191E00E9483064AE066E573E080913E
S11307E00001909101010E949F086AE087E30E9442
S11307F0940661E086E593E00E94830664E180E06C
S11308000E94940661E08BE191E00E9483064AE035
S113081066E573E080915A0190915B010E949F0804
S113082064E189E10E94940661E086E593E00E9418
S113083083064AE066E573E080913E0190913F01B2
S11308400E949F0864E18CE30E94940661E086E5BF
S113085093E00E9483064AE066E573E080915801C4
S1130860909159010E949F0861E282E30E949406DC
S113087062E086E593E00E94830663E289E40E94D5
S1130880940661E080E291E00E9483066EE180E0DC
S11308900E94940661E083E291E00E9483064AE0AC
S11308A066E573E080914C0190914D010E949F0890
S11308B06EE189E10E94940661E086E593E00E947E
S11308C0830680914A0190914B018530910551F442
S11308D068E280E00E94940661E088E291E00E9470
S11308E0830618C08B30910551F468E280E00E94C1
S11308F0940661E08FE291E00E9483060BC00D979D
S113090049F468E280E00E94940661E086E391E0A5
S11309100E9483060E94990685B1817085B985B1CC
S1130920806C85B945B1E0915601F09157019F0162
S1130930ADECBCEC0E9490089695879596958795AA
S1130940969587959C01220F331F880F991F880F56
S1130950991F880F991F820F931F9F01281B390B22
S1130960C901880F8E71842B85B98FED9EE20197A2
S1130970F1F700C0000085B1817085B985B1806A46
S113098085B945B120915601309157010E949008D4
S1130990FC01F695E795F695E795F695E7959F01A1
S11309A00E94900896958795969587959695879534
S11309B09C01220F331F880F991F880F991F880FDE
S11309C0991F820F931F9F01281B390BC901880FA0
S11309D08E71842B85B98FED9EE20197F1F700C0EB
S11309E0000085B1817085B985B1806685B945B14E
S11309F020915601309157013695279536952795C4
S1130A00ABE7B4E10E949008FC01F695E7959F01DD
S1130A10ADECBCEC0E9490089695879596958795C9
S1130A20969587959C01220F331F880F991F880F75
S1130A30991F880F991F820F931F9F01281B390B41
S1130A40C901880F8E71842B85B98FED9EE20197C1
S1130A50F1F700C0000054CE98B19D7F98B9662389
S1130A6029F098B1986098B990E01FC098B1977F29
S1130A7098B9FACF47E050E0491B5109282F30E0DC
S1130A8002C0359527954A95E2F720FF04C028B1A6
S1130A90206128B903C028B12F7E28B928B120626B
S1130AA028B928B12F7D28B99F5F983018F388B1F1
S1130AB0826088B9089560E00E942C05089561E081
S1130AC00E942C050895CF93DF9387B1826087B984
S1130AD087B1846087B987B1886087B987B180613D
S1130AE087B987B1806287B988B1846088B988B1D1
S1130AF0826088B983EC99E00197F1F700C00000A7
S1130B0088B18B7F88B98BE594E40197F1F700C035
S1130B10000088B1846088B988B18D7F88B981E28A
S1130B200E945B0583E10E945B0586E00E945B05F1
S1130B3082EC0E945B0580E20E945B0589E00E94D2
S1130B405B0580E80E945B0580E40E945B05C0E0D1
S1130B50D0E004C080E00E945F052196C83F91E088
S1130B60D907C0F388E00E945B058CE00E945B0516
S1130B70DF91CF91089580E80E945B0580E40E9494
S1130B805B05109254031092550380E090E005C079
S1130B90FC01E45AFE4F10820196883F21E092073F
S1130BA0B8F30895262F26952695269590E034E5EA
S1130BB0239F800D911D1124442379F0677021E057
S1130BC030E002C0220F331F6A95E2F7FC01E45AB9
S1130BD0FE4F8081282B20830895677021E030E048
S1130BE002C0220F331F6A95E2F7FC01E45AFE4F5C
S1130BF020958081282320830895EF92FF920F93FC
S1130C001F93CF93DF93E82EF62E00E045C02E2DE0
S1130C1030E020523109802F6F2D0E944E08F901D7
S1130C20EE0FFF1FEE0FFF1FE20FF31FE80FF11D82
S1130C30E859FF4FE491812F0E944E08F0E002C072
S1130C40F595E7958A95E2F7E0FF0AC060915503B0
S1130C5080915403610F41E0800F0E94D20509C0C6
S1130C606091550380915403610F40E0800F0E940E
S1130C70D2051F5F01C010E0212F30E0CE01880FA4
S1130C80991F880F991F880F991F8C1B9D0B28177C
S1130C9039070CF4BCCF0F5F202F30E0CF2DD0E00C
S1130CA0CE01880F991F880F991F8C0F9D1F28173D
S1130CB039070CF3E4E5F3E08F2D880F880F8F0DCF
S1130CC09081890F8F5F8083843570F01092540374
S1130CD0E5E5F3E08F2D880F880F880F982F9F1973
S1130CE08081890F8F5F808380915503803320F04A
S1130CF01092540310925503DF91CF911F910F91DD
S1130D00FF90EF9008951F93CF93DF93EC01162F7C
S1130D1004C02196612F0E94FD0588818111F9CFBD
S1130D20DF91CF911F9108958093540360935503ED
S1130D300895CF93DF9380E80E945B0580E40E94CE
S1130D405B05C0E0D0E007C0FE01E45AFE4F80819D
S1130D500E945F052196C83F81E0D807A8F3DF9180
S1130D60CF9108950E94C6060C94A7070E94A0077D
S1130D7058F00E94990740F029F45F3F29F00C9441
S1130D80900751110C94DB070C9496070E94B80746
S1130D9068F39923B1F3552391F3951B550BBB27A6
S1130DA0AA2762177307840738F09F5F5F4F220FEB
S1130DB0331F441FAA1FA9F335D00E2E3AF0E0E8E2
S1130DC032D091505040E695001CCAF72BD0FE2F2C
S1130DD029D0660F771F881FBB1F261737074807C0
S1130DE0AB07B0E809F0BB0B802DBF01FF27935878
S1130DF05F4F3AF09E3F510578F00C9490070C94A5
S1130E00DB075F3FE4F3983ED4F3869577956795C7
S1130E10B795F7959F5FC9F7880F911D96958795AC
S1130E2097F90895E1E0660F771F881FBB1F6217CB
S1130E3073078407BA0720F0621B730B840BBA0B89
S1130E40EE1F88F7E09508950E94C00788F09F5729
S1130E5098F0B92F9927B751B0F0E1F0660F771FDA
S1130E60881F991F1AF0BA95C9F714C0B13091F0D0
S1130E700E94DA07B1E008950C94DA07672F782FFF
S1130E808827B85F39F0B93FCCF386957795679595
S1130E90B395D9F73EF490958095709561957F4F01
S1130EA08F4F9F4F0895E89409C097FB3EF49095A7
S1130EB08095709561957F4F8F4F9F4F9923A9F02F
S1130EC0F92F96E9BB279395F695879577956795BE
S1130ED0B795F111F8CFFAF4BB0F11F460FF1BC002
S1130EE06F5F7F4F8F4F9F4F16C0882311F096E995
S1130EF011C0772321F09EE8872F762F05C0662343
S1130F0071F096E8862F70E060E02AF09A95660FFB
S1130F10771F881FDAF7880F9695879597F90895B4
S1130F2097F99F6780E870E060E008959FEF80EC98
S1130F30089500240A94161617061806090608953B
S1130F4000240A9412161306140605060895092EA1
S1130F500394000C11F4882352F0BB0F40F4BF2B10
S1130F6011F460FF04C06F5F7F4F8F4F9F4F089550
S1130F7057FD9058440F551F59F05F3F71F0479546
S1130F80880F97FB991F61F09F3F79F0879508952B
S1130F90121613061406551FF2CF4695F1DF08C04A
S1130FA0161617061806991FF1CF86957105610567
S1130FB008940895E894BB2766277727CB0197F90F
S1130FC008950E94F4070C94A7070E94990738F02B
S1130FD00E94A00720F0952311F00C9490070C9424
S1130FE0960711240C94DB070E94B80770F3959FB1
S1130FF0C1F3950F50E0551F629FF001729FBB270C
S1131000F00DB11D639FAA27F00DB11DAA1F649FA7
S11310106627B00DA11D661F829F2227B00DA11D5A
S1131020621F739FB00DA11D621F839FA00D611DE0
S1131030221F749F3327A00D611D231F849F600D01
S1131040211D822F762F6A2F11249F5750409AF02A
S1131050F1F088234AF0EE0FFF1FBB1F661F771FB6
S1131060881F91505040A9F79E3F510580F00C9481
S113107090070C94DB075F3FE4F3983ED4F3869526
S113108077956795B795F795E7959F5FC1F7FE2B21
S1131090880F911D9695879597F90895991B79E086
S11310A004C0991F961708F0961B881F7A95C9F7F4
S11310B080950895AA1BBB1B51E107C0AA1FBB1F43
S11310C0A617B70710F0A61BB70B881F991F5A95D0
S11310D0A9F780959095BC01CD010895A1E21A2E3F
S11310E0AA1BBB1BFD010DC0AA1FBB1FEE1FFF1FC8
S11310F0A217B307E407F50720F0A21BB30BE40B18
S1131100F50B661F771F881F991F1A9469F760955E
S11311107095809590959B01AC01BD01CF01089518
S1131120A29FB001B39FC001A39F700D811D112424
S1131130911DB29F700D811D1124911D0895BB272F
S11311404A3031F4992322F4BDE2909581959F4F62
S11311500C94AB08BB27FB015527AA27880F991FBE
S1131160AA1FA41710F0A41B83955051B9F7A05DD2
S1131170AA3308F0A95DA193009779F7B111B1934F
S11311801192CB010C94C408DC01FC01672F71910E
S11311907723E1F7329704C07C916D937083629159
S11311A0AE17BF07C8F30895F999FECF92BD81BD6C
S11311B0F89A992780B50895262FF999FECF1FBA7A
S11311C092BD81BD20BD0FB6F894FA9AF99A0FBE6C
S10B11D001960895F894FFCF85
S11311D83200434F4D502E20444520424F52444F35
S11311E8004469616D28636D293A0052504D3A00F4
S11311F84B6D004144433A004D6F646F3A50004DC3
S11112086F646F3A44004D6F646F3A520000F9
S9030000FC
