S00E00005465737465312E73726563E0
S11300000C9424010C9443010C945A010C94410166
S11300100C9441010C94DD010C9441010C944101B8
S11300200C9441010C9441010C9441010C94410144
S11300300C9441010C9441010C9471010C94410104
S11300400C9441010C9441010C9441010C94410124
S11300500C9441010C9441010C9441010C94410114
S11300600C9441010C944101000000000000005F69
S113007000000007000700147F147F14242A7F2A3D
S11300801223130864623649552250000503000008
S1130090001C2241000041221C0014083E081408E0
S11300A0083E0808005030000008080808080060EE
S11300B060000020100804023E5149453E00427F82
S11300C0400042615149462141454B311814127F89
S11300D01027454545393C4A494930017109050312
S11300E03649494936064949291E0036360000007A
S11300F0563600000814224100141414141400414C
S11301002214080201510906324979413E7E111137
S1130110117E7F494949363E414141227F41412276
S11301201C7F494949417F090909013E4149497AEE
S11301307F0808087F00417F41002040413F017F44
S1130140081422417F404040407F020C027F7F041C
S113015008107F3E4141413E7F090909063E415155
S1130160215E7F09192946464949493101017F0128
S1130170013F4040403F1F2040201F3F4038403F48
S11301806314081463070870080761514945430064
S11301907F41410002040810200041417F00040215
S11301A00102044040404040000102040020545435
S11301B054787F48444438384444442038444448BC
S11301C07F3854545418087E0901020C5252523E8E
S11301D07F0804047800447D40002040443D007FB3
S11301E01028440000417F40007C041804787C08F7
S11301F004047838444444387C141414080814144F
S1130200187C7C080404084854545420043F444097
S1130210203C4040207C1C2040201C3C4030403C82
S113022044281028440C5050503C4464544C44001E
S11302300836410000007F00000041360800100825
S1130240081008000000000011241FBECFEFD8E002
S1130250DEBFCDBF11E0A0E0B1E0ECEDFDE002C0F7
S113026005900D92A432B107D9F723E0A4E2B1E0DE
S113027001C01D92AA33B207E1F70E94F4010C9465
S1130280EC060C9400001F920F920FB60F921124EB
S11302908F939F9380910001909101010196909317
S11302A00101809300019F918F910F900FBE0F90D9
S11302B01F9018951F920F920FB60F9211248F93CF
S11302C09F93809100019091010101979093010106
S11302D0809300019F918F910F900FBE0F901F90FC
S11302E018951F920F920FB60F9211242F933F93DC
S11302F04F935F936F937F938F939F93AF93BF932A
S1130300EF93FF9340912801509129014F5F5F4F74
S113031050932901409328019A01369527953695E3
S1130320279536952795A5ECB0E20E94A8069295EC
S113033082958F7089279F70892768EE73E0869F66
S11303409001879F300D969F300D1124421753075B
S113035019F560912601709127017695679580E0E3
S113036090E00E948D0520E030E040E752E40E94D6
S11303701B060E945E0570932F0160932E0110925C
S11303802701109226018091240190912501019664
S11303909093250180932401FF91EF91BF91AF9138
S11303A09F918F917F916F915F914F913F912F9189
S11303B00F900FBE0F901F9018951F920F920FB6BB
S11303C00F9211248F939F9380912601909127017E
S11303D0019690932701809326019F918F910F900E
S11303E00FBE0F901F9018958FEF87B984B981E0E5
S11303F08AB98DEF8BB982E084BD93E095BD29EF76
S113040027BD80936E002AE0209369009DBB7894F9
S113041094E09093680080936D000E949D03609126
S11304200001709101017695679580E090E00E944B
S11304308D0523EC35EF48EC50E40E941B0620E0C8
S113044030E543EC57E40E94EC046B017C016091BD
S11304502E0170912F0180E090E00E948D05A7018C
S113046096010E941B0620E030E040E752E40E941F
S11304701B060E945E0570932B0160932A01409134
S1130480240150912501469F9001479F300D569FAE
S1130490300D1124C90160E17EE00E94940670933E
S11304A02D0160932C0140912801509129019A015A
S11304B0AFE8B3EE0E94A806969587959695879522
S11304C0969587959C01220F331F220F331F220F0D
S11304D0331F820F931F4817590709F05AC00E940F
S11304E0F50361E082E091E00E94BD046AE080E0EF
S11304F00E94CE0461E081E191E00E94BD044AE0E3
S11305006AE273E080910001909101010E94B706B4
S11305106AE087E30E94CE0461E08AE293E00E94ED
S1130520BD0464E180E00E94CE0461E08BE191E0CF
S11305300E94BD044AE06AE273E080912E0190912A
S11305402F010E94B70664E18EE10E94CE0461E0AF
S11305508AE293E00E94BD044AE06AE273E080917B
S11305602C0190912D010E94B70661E283E20E9462
S1130570CE0462E08AE293E00E94BD0463E28CE36D
S11305800E94CE0461E080E291E00E94BD040E94DA
S1130590D30485B1807885B985B1806685B945B1C4
S11305A0E0912A01F0912B019F01ADECBCEC0E947B
S11305B0A8069695879596958795969587959C0117
S11305C0220F331F880F991F880F991F880F991FB7
S11305D0820F931F9F01281B390BC9018F70842B35
S11305E085B98FED9EE20197F1F700C0000085B157
S11305F0807885B985B1806585B945B120912A0196
S113060030912B010E94A806FC01F695E795F6951A
S1130610E795F695E7959F010E94A806969587951C
S113062096958795969587959C01220F331F880F81
S1130630991F880F991F880F991F820F931F9F017D
S1130640281B390BC9018F70842B85B98FED9EE26D
S11306500197F1F700C0000085B1807885B985B1B4
S1130660806385B945B120912A0130912B013695DB
S1130670279536952795ABE7B4E10E94A806FC01BF
S1130680F695E7959F01ADECBCEC0E94A806969503
S1130690879596958795969587959C01220F331F8C
S11306A0880F991F880F991F880F991F820F931F16
S11306B09F01281B390BC9018F70842B85B98FEDDD
S11306C09EE20197F1F700C00000A9CE98B19D7F8A
S11306D098B9662329F098B1986098B990E01FC042
S11306E098B1977F98B9FACF47E050E0491B510978
S11306F0282F30E002C0359527954A95E2F720FF70
S113070004C028B1206128B903C028B12F7E28B9BC
S113071028B1206228B928B12F7D28B99F5F98306D
S113072018F388B1826088B9089560E00E94660376
S1130730089561E00E9466030895CF93DF9387B123
S1130740826087B987B1846087B987B1886087B9C7
S113075087B1806187B987B1806287B988B18460C5
S113076088B988B1826088B983EC99E00197F1F780
S113077000C0000088B18B7F88B98BE594E40197B1
S1130780F1F700C0000088B1846088B988B18D7F1A
S113079088B981E20E94950383E10E94950386E073
S11307A00E94950382EC0E94950380E20E949503C7
S11307B089E00E94950380E80E94950380E40E94EA
S11307C09503C0E0D0E004C080E00E949903219624
S11307D0C83F91E0D907C0F388E00E9495038CE0FC
S11307E00E949503DF91CF91089580E80E949503BC
S11307F080E40E949503109228031092290380E05C
S113080090E005C0FC01E05DFE4F10820196883F38
S113081021E09207B8F30895262F2695269526956C
S113082090E034E5239F800D911D1124442379F039
S1130830677021E030E002C0220F331F6A95E2F7AF
S1130840FC01E05DFE4F8081282B208308956770B2
S113085021E030E002C0220F331F6A95E2F7FC0169
S1130860E05DFE4F20958081282320830895EF9238
S1130870FF920F931F93CF93DF93E82EF62E00E0A1
S113088045C02E2D30E020523109802F6F2D0E945B
S11308908806F901EE0FFF1FEE0FFF1FE20FF31F93
S11308A0E80FF11DE859FF4FE491812F0E9488065B
S11308B0F0E002C0F595E7958A95E2F7E0FF0AC0FB
S11308C06091290380912803610F41E0800F0E9409
S11308D00C0409C06091290380912803610F40E052
S11308E0800F0E940C041F5F01C010E0212F30E034
S11308F0CE01880F991F880F991F880F991F8C1B91
S11309009D0B281739070CF4BCCF0F5F202F30E064
S1130910CF2DD0E0CE01880F991F880F991F8C0F1F
S11309209D1F281739070CF3E8E2F3E08F2D880F99
S1130930880F8F0D9081890F8F5F8083843570F0CD
S113094010922803E9E2F3E08F2D880F880F880FB7
S1130950982F9F198081890F8F5F8083809129034D
S1130960803320F01092280310922903DF91CF9155
S11309701F910F91FF90EF9008951F93CF93DF93F2
S1130980EC01162F04C02196612F0E943704888140
S11309908111F9CFDF91CF911F910895809328039E
S11309A0609329030895CF93DF9380E80E94950311
S11309B080E40E949503C0E0D0E007C0FE01E05D42
S11309C0FE4F80810E9499032196C83F81E0D80799
S11309D0A8F3DF91CF9108950E9400050C94E105DE
S11309E00E94DA0558F00E94D30540F029F45F3FD5
S11309F029F00C94CA0551110C9415060C94D005D9
S1130A000E94F20568F39923B1F3552391F3951BE2
S1130A10550BBB27AA2762177307840738F09F5F1B
S1130A205F4F220F331F441FAA1FA9F335D00E2E88
S1130A303AF0E0E832D091505040E695001CCAF7F5
S1130A402BD0FE2F29D0660F771F881FBB1F2617B8
S1130A5037074807AB07B0E809F0BB0B802DBF018F
S1130A60FF2793585F4F3AF09E3F510578F00C945E
S1130A70CA050C9415065F3FE4F3983ED4F38695BB
S1130A8077956795B795F7959F5FC9F7880F911D7F
S1130A909695879597F90895E1E0660F771F881F6B
S1130AA0BB1F621773078407BA0720F0621B730B1E
S1130AB0840BBA0BEE1F88F7E09508950E94FA059F
S1130AC088F09F5798F0B92F9927B751B0F0E1F00B
S1130AD0660F771F881F991F1AF0BA95C9F714C0BB
S1130AE0B13091F00E941406B1E008950C941406FC
S1130AF0672F782F8827B85F39F0B93FCCF38695F4
S1130B0077956795B395D9F73EF490958095709550
S1130B1061957F4F8F4F9F4F0895E89409C097FBCD
S1130B203EF490958095709561957F4F8F4F9F4FC0
S1130B309923A9F0F92F96E9BB279395F695879504
S1130B4077956795B795F111F8CFFAF4BB0F11F4C7
S1130B5060FF1BC06F5F7F4F8F4F9F4F16C088236E
S1130B6011F096E911C0772321F09EE8872F762FA4
S1130B7005C0662371F096E8862F70E060E02AF0E5
S1130B809A95660F771F881FDAF7880F96958795D1
S1130B9097F9089597F99F6780E870E060E00895F9
S1130BA09FEF80EC089500240A9416161706180681
S1130BB00906089500240A9412161306140605065D
S1130BC00895092E0394000C11F4882352F0BB0FEE
S1130BD040F4BF2B11F460FF04C06F5F7F4F8F4F51
S1130BE09F4F089557FD9058440F551F59F05F3F8C
S1130BF071F04795880F97FB991F61F09F3F79F03B
S1130C0087950895121613061406551FF2CF4695BC
S1130C10F1DF08C0161617061806991FF1CF86953E
S1130C207105610508940895E894BB276627772722
S1130C30CB0197F908950E942E060C94E1050E94B9
S1130C40D30538F00E94DA0520F0952311F00C94B6
S1130C50CA050C94D00511240C9415060E94F205C3
S1130C6070F3959FC1F3950F50E0551F629FF001FB
S1130C70729FBB27F00DB11D639FAA27F00DB11D14
S1130C80AA1F649F6627B00DA11D661F829F22279D
S1130C90B00DA11D621F739FB00DA11D621F839F24
S1130CA0A00D611D221F749F3327A00D611D231FFA
S1130CB0849F600D211D822F762F6A2F11249F5748
S1130CC050409AF0F1F088234AF0EE0FFF1FBB1F4B
S1130CD0661F771F881F91505040A9F79E3F51050A
S1130CE080F00C94CA050C9415065F3FE4F3983E1B
S1130CF0D4F3869577956795B795F795E7959F5FB4
S1130D00C1F7FE2B880F911D9695879597F9089545
S1130D10991B79E004C0991F961708F0961B881F49
S1130D207A95C9F780950895AA1BBB1B51E107C0AA
S1130D30AA1FBB1FA617B70710F0A61BB70B881F67
S1130D40991F5A95A9F780959095BC01CD010895F6
S1130D50A29FB001B39FC001A39F700D811D1124F8
S1130D60911DB29F700D811D1124911D0895BB2703
S1130D704A3031F4992322F4BDE2909581959F4F36
S1130D800C94C306BB27FB015527AA27880F991F7C
S1130D90AA1FA41710F0A41B83955051B9F7A05DA6
S1130DA0AA3308F0A95DA193009779F7B111B19323
S1130DB01192CB010C94DC06DC01FC01672F7191CC
S1130DC07723E1F7329704C07C916D93708362912D
S10F0DD0AE17BF07C8F30895F894FFCFD6
S1130DDC3200434F4D502E20444520424F52444F35
S1130DEC004469616D28636D293A0052504D3A00F4
S1070DFC4B6D000037
S9030000FC
