:100000000C9454010C9473010C94A3010C94710191
:100010000C9471010C943D020C9471010C947101CB
:100020000C9471010C9471010C9443030C947101B4
:100030000C9471010C9471010C94D3010C94710116
:100040000C9471010C9471010C9471010C94710168
:100050000C9471010C9465020C9471010C94710163
:100060000C9471010C947101050000000000050062
:10007000005F000005000700070005147F147F14CF
:1000800005242A7F2A12052313086462053649567F
:10009000205005080703000005001C224100050050
:1000A00041221C000514083E08140508083E0808F3
:1000B0000500B07000000508080808080500606029
:1000C0000000052010080402053E5149453E050088
:1000D000427F4000057249494946052141494D3357
:1000E000051814127F10052745454539053C4A4936
:1000F0004931054121110907053649494936054667
:100100004949291E05000014000005004034000084
:100110000508142241000514141414140541221476
:100120000800050201590906053E415D594E057C4E
:100130001211127C057F49494936053E4141412251
:10014000057F4141413E057F49494949057F0909EC
:100150000909053E41415173057F0808087F0500E4
:10016000417F4100052040413F01057F08142241A5
:10017000057F40404040057F020C027F057F040858
:10018000107F053E4141413E057F09090906053EB4
:100190004151215E057F0919294605264949493201
:1001A0000501017F0101053F4040403F051F204000
:1001B000201F053F4038403F0563140814630503C2
:1001C0000478040305615149454305007F4141001E
:1001D000050204081020050041417F0005040201CA
:1001E000020405404040404005070B000000052088
:1001F00054547840057F2844443805384444442802
:1002000005384444287F0538545454180500087EA6
:1002100009020518A4A49C78057F08040478050049
:10022000447D4000052040403D00057F10284400EB
:100230000500417F4000057C04780478057C0804B3
:10024000047805384444443805FC1824241805185B
:10025000242418FC057C080404080548545454243C
:100260000504043F4424053C4040207C051C2040FC
:10027000201C053C4030403C054428102844054CD7
:100280009090907C054464544C440500083641002D
:10029000050000770000050041360800050402044F
:1002A000080405007F417F0011241FBECFEFD8E076
:1002B000DEBFCDBF11E0A0E0B1E0E6E3F7E102C0B0
:1002C00005900D92AC34B107D9F725E0ACE4B1E06C
:1002D00001C01D92AF37B207E1F70E94C2030C9430
:1002E000990B0C9400001F920F920FB60F921124DD
:1002F0002F933F934F935F936F937F938F939F932E
:10030000AF93BF93EF93FF93609100017091010150
:100310006F5F7F4F709301016093000180E090E078
:100320000E948B0BFF91EF91BF91AF919F918F91A5
:100330007F916F915F914F913F912F910F900FBEE1
:100340000F901F9018951F920F920FB60F921124C5
:100350002F933F934F935F936F937F938F939F93CD
:10036000AF93BF93EF93FF936091000170910101F0
:1003700061507109709301016093000180E090E089
:100380000E948B0BFF91EF91BF91AF919F918F9145
:100390007F916F915F914F913F912F910F900FBE81
:1003A0000F901F9018951F920F920FB60F92112465
:1003B0002F933F934F935F936F937F938F939F936D
:1003C000AF93BF93EF93FF9340916A0150916B01FC
:1003D0004F5F5F4F50936B0140936A019A013695CE
:1003E00027953695279536952795A5ECB0E20E947E
:1003F000740B929582958F7089279F70892768EE7C
:1004000073E0869F9001879F300D969F300D1124D9
:100410004217530709F5609168017091690180E006
:1004200090E00E94430A20E030E040E752E40E945E
:10043000D10A0E94140A70937101609370011092A6
:10044000690110926801809166019091670101969F
:100450009093670180936601FF91EF91BF91AF91F7
:100460009F918F917F916F915F914F913F912F91CC
:100470000F900FBE0F901F9018951F920F920FB6FE
:100480000F9211248F939F934F9909C08091680117
:10049000909169010196909369018093680189B1F7
:1004A0008BE090E090935901809358014C9906C0DD
:1004B00085E090E090935901809358019F918F912E
:1004C0000F900FBE0F901F9018951F920F920FB6AE
:1004D0000F9211242F933F934F935F936F937F93CA
:1004E0008F939F93AF93BF93EF93FF93309920C067
:1004F000E8E7F0E080819181909365018093640149
:10050000808191818F3F934039F48FEF90E09093F9
:100510005B0180935A010CC0809178009091790022
:10052000969587959695879590935B0180935A0150
:10053000319939C0E8E7F0E08081918190936301BF
:1005400080936201808191818F3F934069F48FEFA6
:1005500090E0909361018093600184E690E0909335
:100560007501809374011FC080917800909179008B
:1005700096958795969587959093610180936001F4
:1005800044E6489F9001499F300D1124A1E8B0E84E
:100590000E94740B880F892F881F990B9195909357
:1005A000750180937401329938C0E8E7F0E08081EA
:1005B000918190935F0180935E01808191818F3F53
:1005C000934069F48FEF90E090935D0180935C011C
:1005D00089EB91E090937301809372011EC060914A
:1005E0007800709179007695679576956795709308
:1005F0005D0160935C016956710980E090E00E94A2
:10060000430A2BE734E14EEA5EE30E94A2090E940E
:10061000140A709373016093720180914C01909160
:100620004D01A0914E01B0914F018C3221E0920713
:10063000A105B10568F420916C0130916D0125315F
:10064000310530F026E630E030935B0120935A010B
:10065000892B8A2B8B2B31F481E090E090935B0106
:1006600080935A01FF91EF91BF91AF919F918F912C
:100670007F916F915F914F913F912F910F900FBE9E
:100680000F901F9018951F920F920FB60F92112482
:100690000F931F932F933F934F935F936F937F938A
:1006A0008F939F93AF93BF93EF93FF9380918100BC
:1006B00086FF0FC08091860090918700A0E0B0E097
:1006C0008093500190935101A0935201B093530134
:1006D00040C06091860070918700CB01A0E0B0E03F
:1006E000009150011091510120915201309153011C
:1006F000801B910BA20BB30B880F991FAA1FBB1F66
:10070000880F991FAA1FBB1FBC01CD01660F771F61
:10071000881F991F660F771F881F991F2AE330E0F3
:1007200040E050E00E94520B20934C0130934D0169
:1007300040934E0150934F012C3B364041055105EB
:1007400041F410924C0110924D0110924E01109202
:100750004F01E1E8F0E0908180E489278083FF91F8
:10076000EF91BF91AF919F918F917F916F915F9129
:100770004F913F912F911F910F910F900FBE0F90AE
:100780001F90189588EF87B99EEF94B991E49AB9B4
:100790009DE49BB988B981E085B992E094BD83E07E
:1007A00085BD29EF27BD90936E009AE09093690074
:1007B0008DBB94E09093680090EB90936D009FEE5A
:1007C00090937A0010927B0098E390937E0093EAD6
:1007D00094BD85BD84E48093810080E280936F00A6
:1007E00078948091540190915501019759F460914A
:1007F000000180E090E00E948B0B60E081E090E0DF
:100800000E948B0B81E090E00E94830B8F3F31F4BC
:100810006091560181E090E00E948B0B80E090E0B7
:100820000E94830B8F3F31F46091000180E090E0E3
:100830000E948B0B81E090E00E94830B90E09093EC
:100840005701809356010E94670720E048E065E069
:1008500088E690E00E94F0070E94E00760910001A6
:10086000709101017695679580E090E00E94430ABF
:1008700023EC35EF48EC50E40E94D10A20E030E54B
:1008800043EC57E40E94A2096B017C016091700166
:100890007091710180E090E00E94430AA7019601E7
:1008A0000E94D10A20E030E040E752E40E94D10AE1
:1008B0000E94140A70936D0160936C01409166016F
:1008C00050916701469F9001479F300D569F300D14
:1008D0001124C90160E17EE00E943E0B8091560127
:1008E00090915701EB01C80FD91FD0936F01C093AE
:1008F0006E0180E090E00E94830B90E090930101F4
:10090000809300016C2F81E090E00E948B0B80911E
:100910005A0187BD0E94DC0761E086E10E945E0704
:1009200082E091E00E9420096FE080E00E945E0773
:1009300081E191E00E9420096FE087E30E945E0759
:10094000609100017091010180E090E00E94370900
:100950006CE180E00E945E078BE191E00E9420093B
:100960006CE189E10E945E076091700170917101F4
:1009700080E090E00E94370966E380E00E945E0715
:1009800080E291E00E94200966E385E20E945E0712
:1009900060914C0170914D0180914E0190914F01F9
:1009A0000E94370963E48AE50E945E0760916E0148
:1009B00070916F0180E090E00E94370963E48EE659
:1009C0000E945E0787E291E00E942009CCE7D0E018
:1009D00080EC88832FEF31EE84E02150304080405E
:1009E000E1F700C0000069E288E20E945E076091C2
:1009F0005A0170915B0180E090E00E94370969E242
:100A000080E00E945E078AE291E00E94200981EC6A
:100A100088839FEF21EE34E0915020403040E1F791
:100A200000C0000068E28AE50E945E0760917401E0
:100A30007091750180E090E00E94370968E28EE6CF
:100A40000E945E0781E391E00E94200982EC888386
:100A50008FEF91EE24E0815090402040E1F700C0FC
:100A600000006CE18AE50E945E076091720170915E
:100A7000730180E090E00E9437096CE18EE60E94ED
:100A80005E0783E391E00E942009809158019091D4
:100A900059018B30910549F46FE08AE50E945E07A9
:100AA00086E391E00E9420090AC00D9741F46FE0AF
:100AB0008AE50E945E078DE391E00E942009809103
:100AC000580190915901059741F46FE08AE50E9421
:100AD0005E0784E491E00E9420090E94300785B1FE
:100AE000817085B985B1806C85B945B1E0916C01A3
:100AF000F0916D019F01ADECBCEC0E94740B9695DA
:100B0000879596958795969587959C01220F331F1B
:100B1000880F991F880F991F880F991F820F931FA5
:100B20009F01281B390BC901880F8E71842B85B951
:100B30008FED9EE20197F1F700C0000085B1817052
:100B400085B985B1806A85B945B120916C01309134
:100B50006D010E94740BFC01F695E795F695E795FB
:100B6000F695E7959F010E94740B9695879596954B
:100B70008795969587959C01220F331F880F991FA3
:100B8000880F991F880F991F820F931F9F01281BA1
:100B9000390BC901880F8E71842B85B98FED9EE2C8
:100BA0000197F1F700C0000085B1817085B985B16A
:100BB000806685B945B120916C0130916D01369503
:100BC000279536952795ABE7B4E10E94740BFC019D
:100BD000F695E7959F01ADECBCEC0E94740B9695E1
:100BE000879596958795969587959C01220F331F3B
:100BF000880F991F880F991F880F991F820F931FC5
:100C00009F01281B390BC901880F8E71842B85B970
:100C10008FED9EE20197F1F700C000001FCE6695B0
:100C200066956695E82FF0E080E8689FE00DF11D7D
:100C30001124E158FE4F40830895669566956695A8
:100C4000E82FF0E080E8689FE00DF11D1124E158E5
:100C5000FE4F80810895CF93DF93DC01CB01FA0131
:100C600020E32287218720872783268325832483E7
:100C70002383228321832083BB234CF4B095A0954A
:100C8000909581959F4FAF4FBF4F31E008C030E046
:100C900006C09A5CAA49BB4321812F5F218381153D
:100CA0002AEC92072AE9A2072BE3B20794F706C0C1
:100CB000915EA54FB54022812F5F2283811521EEE1
:100CC000920725EFA20725E0B20794F707C08058E6
:100CD0009649A849B10923812F5F2383803826E9EB
:100CE000920728E9A207B10594F707C080549244FF
:100CF000AF40B10924812F5F2483803422E492071E
:100D00002FE0A207B10594F707C0805A9648A1408A
:100D1000B10925812F5F2583803A26E8920721E0DB
:100D2000A207B10594F707C080519742A109B10904
:100D300026812F5F2683803127E29207A105B10526
:100D40009CF707C0885E9340A109B10927812F5FF6
:100D50002783883E23E09207A105B1059CF707C0D1
:100D600084569109A109B10920852F5F2087843617
:100D70009105A105B105A4F706C00A97A109B1091B
:100D800021852F5F21878A309105A105B105ACF738
:100D900006C00197A109B10922852F5F2287181685
:100DA00019061A061B06ACF320E001C02F5FDF0115
:100DB000A20FB11D8C918033C9F3332331F0215040
:100DC000DF01A20FB11D8DE28C934AE0421B30E09F
:100DD0000DC0832F90E0EF01C80FD91F820F911D26
:100DE000DF01A80FB91F8C9188833F5F431788F7F5
:100DF000E30FF11D1082DF91CF9108950F931F93A0
:100E0000CF93DF93C82F8B01D42F0E94840988E7EA
:100E10000E9496098C2F0E949609C0E007C0F80135
:100E2000EC0FF11D80810E949609CF5FCD17B8F3BA
:100E30000E948E09DF91CF911F910F910895CF935A
:100E4000DF931F92CDB7DEB7898341E0BE016F5FAC
:100E50007F4F80E00E94FE060F90DF91CF910895B2
:100E6000CF9381E20E941F0780E00E941F078FE757
:100E70000E941F0782E20E941F0780E00E941F0756
:100E800087E00E941F07C0E00BC080E1C89FB0014F
:100E9000112461587E4F40E180E40E94FE06CF5F3E
:100EA000C03498F3CF910895882314F0809376018D
:100EB0000895803410F4809377010895CF93C62F5E
:100EC0000E9454078C2F0E945907CF9108950E94C9
:100ED0006B098EEA0E941F0785ED0E941F0780EFB5
:100EE0000E941F0788EA0E941F078FE30E941F07C6
:100EF00083ED0E941F0780E00E941F078DE80E947B
:100F00001F0784E10E941F0780E40E941F0780E200
:100F10000E941F0780E00E941F0781EA0E941F07AE
:100F200088EC0E941F078AED0E941F0782E10E9441
:100F30001F0781E80E941F078FEF0E941F0789ED9E
:100F40000E941F0781EF0E941F078BED0E941F0761
:100F500080E20E941F0784EA0E941F0786EA0E941F
:100F60001F078EE20E941F078FEA0E941F0760E0A2
:100F700080E00E945E07E6E7F1E086EA828317825E
:100F8000168215821182108208951F93CF93DF93EA
:100F9000182FD0E00BC0412F6D2F8C2F0E940F0611
:100FA000CF5F01C0C0E0CC23B4F7D85FD034D0F31A
:100FB000DF91CF911F91089580E00E94C5070895A9
:100FC00080917801873A21F486EA8093780103C002
:100FD00087EA80937801809178010E941F07089525
:100FE0006623E4F04034D0F42230C0F4E6E7F1E0C8
:100FF000948383836583468350E041505109CA013D
:1010000099230CF4079695958795959587959595D1
:101010008795E6E7F1E08F5F8783208708954F92F9
:101020005F926F927F928F929F92AF92BF92CF9278
:10103000DF92EF92FF920F931F93CF93DF93A6E778
:10104000B1E05C9011964C901197805215969C914E
:10105000159717962C911797929F900111242F5F47
:101060003F4F829FA001839F500D11241396ED9155
:10107000FC9114975A018FEFA81AB80AE40FF51FD4
:101080007490842D8770982E642C812C5FC0662DFF
:10109000852D0E945E077501E80CF11C670181E057
:1010A000C81AD10810E041C08091790190917A016D
:1010B000FC01EE0DFF1D2491492D50E030E0092C7C
:1010C00002C0220F331F0A94E2F7022F8820A1F0FA
:1010D000FC01EC0DFD1DE49188E090E0841B950B74
:1010E000F0E002C0F595E7958A95E2F70E2F022B06
:1010F00080917D01C80ED11C80917E01813039F430
:10110000E6E7F1E0618180810E941D06082BC6E7B9
:10111000D1E06981888191E0980F9883402F0E94E7
:101120000F068F81E80EF11C1F5F171508F4BCCF66
:1011300080917E01811107C0E6E7F1E040E0618126
:1011400080810E940F0688E0680E839480917D0163
:10115000881608F49CCF242D26952695269530E0F8
:1011600080917C0190E0840D911D0197AC0112F4F7
:10117000495F5F4F559547955595479555954795C7
:101180002417350709F445C08FE3861508F441C0DC
:10119000662D852D0E945E07A80CB11C81E0A81A5F
:1011A000B10800E029C0C6E7D1E0F98018816F2DB1
:1011B000812F0E941D06EB81FC81EA0DFB1D4491ED
:1011C00028E030E02919310950E002C055954795D3
:1011D0002A95E2F7482B9885913009F4482BC6E709
:1011E000D1E081E0810F88836F2D812F0E940F064F
:1011F0008F81A80EB11C0F5F0715A8F280917E01A8
:10120000811107C0E6E7F1E040E0618180810E9442
:101210000F06852D870D642D8F5F0E945E07DF917D
:10122000CF911F910F91FF90EF90DF90CF90BF90E3
:10123000AF909F908F907F906F905F904F900895A8
:10124000CF93DF93EC010DC0E6E7F1E090812581BB
:1012500030E0290F311D2038310534F421960E94E9
:101260000F0888818111F0CFDF91CF9108950F93FE
:101270001F93CF93DF93CDB7DEB72C970FB6F894BB
:10128000DEBF0FBECDBF611571058105910521F44B
:1012900080E30E940F0814C061157105810520E8E4
:1012A000920771F08E010F5F1F4F2CE0F801119231
:1012B0002A95E9F7A8010E942B06C8010E9420097F
:1012C0002C960FB6F894DEBF0FBECDBFDF91CF9145
:1012D0001F910F91089587B1806187B987B18062AE
:1012E00087B988B1806188B988B1806288B9109265
:1012F000B90088E48093B80084E08093BC0008952E
:101300008091B900887F089584EA8093BC00809121
:10131000BC008823E4F70E948009089585ED80933E
:10132000BC008091BC0084FDFCCF08958093BB007D
:1013300084E88093BC008091BC008823E4F70E947D
:10134000800908950E94B6090C94970A0E94900A99
:1013500058F00E94890A40F029F45F3F29F00C946C
:10136000800A51110C94CB0A0C94860A0E94A80A98
:1013700068F39923B1F3552391F3951B550BBB27C4
:10138000AA2762177307840738F09F5F5F4F220F09
:10139000331F441FAA1FA9F335D00E2E3AF0E0E800
:1013A00032D091505040E695001CCAF72BD0FE2F4A
:1013B00029D0660F771F881FBB1F261737074807DE
:1013C000AB07B0E809F0BB0B802DBF01FF27935896
:1013D0005F4F3AF09E3F510578F00C94800A0C94D0
:1013E000CB0A5F3FE4F3983ED4F3869577956795F3
:1013F000B795F7959F5FC9F7880F911D96958795CB
:1014000097F90895E1E0660F771F881FBB1F6217E9
:1014100073078407BA0720F0621B730B840BBA0BA7
:10142000EE1F88F7E09508950E94B00A88F09F5754
:1014300098F0B92F9927B751B0F0E1F0660F771FF8
:10144000881F991F1AF0BA95C9F714C0B13091F0EE
:101450000E94CA0AB1E008950C94CA0A672F782F37
:101460008827B85F39F0B93FCCF3869577956795B3
:10147000B395D9F73EF490958095709561957F4F1F
:101480008F4F9F4F0895E89409C097FB3EF49095C5
:101490008095709561957F4F8F4F9F4F9923A9F04D
:1014A000F92F96E9BB279395F695879577956795DC
:1014B000B795F111F8CFFAF4BB0F11F460FF1BC020
:1014C0006F5F7F4F8F4F9F4F16C0882311F096E9B3
:1014D00011C0772321F09EE8872F762F05C0662361
:1014E00071F096E8862F70E060E02AF09A95660F1A
:1014F000771F881FDAF7880F9695879597F90895D3
:1015000097F99F6780E870E060E008959FEF80ECB6
:10151000089500240A941616170618060906089559
:1015200000240A9412161306140605060895092EBF
:101530000394000C11F4882352F0BB0F40F4BF2B2E
:1015400011F460FF04C06F5F7F4F8F4F9F4F08956E
:1015500057FD9058440F551F59F05F3F71F0479564
:10156000880F97FB991F61F09F3F79F08795089549
:10157000121613061406551FF2CF4695F1DF08C068
:10158000161617061806991FF1CF86957105610585
:1015900008940895E894BB2766277727CB0197F92D
:1015A00008950E94E40A0C94970A0E94890A38F070
:1015B0000E94900A20F0952311F00C94800A0C945C
:1015C000860A11240C94CB0A0E94A80A70F3959FF6
:1015D000C1F3950F50E0551F629FF001729FBB272A
:1015E000F00DB11D639FAA27F00DB11DAA1F649FC6
:1015F0006627B00DA11D661F829F2227B00DA11D79
:10160000621F739FB00DA11D621F839FA00D611DFE
:10161000221F749F3327A00D611D231F849F600D1F
:10162000211D822F762F6A2F11249F5750409AF048
:10163000F1F088234AF0EE0FFF1FBB1F661F771FD4
:10164000881F91505040A9F79E3F510580F00C949F
:10165000800A0C94CB0A5F3FE4F3983ED4F386955E
:1016600077956795B795F795E7959F5FC1F7FE2B3F
:10167000880F911D9695879597F90895AA1BBB1B16
:1016800051E107C0AA1FBB1FA617B70710F0A61B82
:10169000B70B881F991F5A95A9F780959095BC01A3
:1016A000CD010895A1E21A2EAA1BBB1BFD010DC09E
:1016B000AA1FBB1FEE1FFF1FA217B307E407F50702
:1016C00020F0A21BB30BE40BF50B661F771F881FDE
:1016D000991F1A9469F760957095809590959B0174
:1016E000AC01BD01CF010895A29FB001B39FC0011D
:1016F000A39F700D811D1124911DB29F700D811D3E
:101700001124911D0895F999FECF92BD81BDF89ADB
:10171000992780B50895262FF999FECF1FBA92BD5B
:1017200081BD20BD0FB6F894FA9AF99A0FBE0196C2
:061730000895F894FFCFBC
:101736003200434F4D502E20444520424F52444FD5
:10174600004469616D28636D293A0052504D3A0094
:10175600536F6E61723A004B6D004163656C653A7A
:101766000025002743004D6F646F3A44004D6F64B7
:0C1776006F3A52004D6F646F3A50000053
:00000001FF
