S01C00004D617465757350657265697261537072696E74342E737265631D
S11300000C9424010C9443010C945A010C94410166
S11300100C9441010C94DB010C9441010C944101BA
S11300200C9441010C9441010C9441010C94410144
S11300300C9441010C9441010C9471010C94410104
S11300400C9441010C9441010C9441010C94410124
S11300500C9441010C940C020C9441010C94410148
S11300600C9441010C944101000000000000005F69
S113007000000007000700147F147F14242A7F2A3D
S11300801223130864623649552250000503000008
S1130090001C2241000041221C0014083E081408E0
S11300A0083E0808005030000008080808080060EE
S11300B060000020100804023E5149453E00427F82
S11300C0400042615149462141454B311814127F89
S11300D01027454545393C4A494930017109050312
S11300E03649494936064949291E0036360000007A
S11300F0563600000814224100141414141400414C
S11301002214080201510906324979413E7E111137
S1130110117E7F494949363E414141227F41412276
S11301201C7F494949417F090909013E4149497AEE
S11301307F0808087F00417F41002040413F017F44
S1130140081422417F404040407F020C027F7F041C
S113015008107F3E4141413E7F090909063E415155
S1130160215E7F09192946464949493101017F0128
S1130170013F4040403F1F2040201F3F4038403F48
S11301806314081463070870080761514945430064
S11301907F41410002040810200041417F00040215
S11301A00102044040404040000102040020545435
S11301B054787F48444438384444442038444448BC
S11301C07F3854545418087E0901020C5252523E8E
S11301D07F0804047800447D40002040443D007FB3
S11301E01028440000417F40007C041804787C08F7
S11301F004047838444444387C141414080814144F
S1130200187C7C080404084854545420043F444097
S1130210203C4040207C1C2040201C3C4030403C82
S113022044281028440C5050503C4464544C44001E
S11302300836410000007F00000041360800100825
S1130240081008000000000011241FBECFEFD8E002
S1130250DEBFCDBF11E0A0E0B1E0ECEEFEE002C0F5
S113026005900D92AE33B107D9F723E0AEE3B1E0C8
S113027001C01D92AA35B207E1F70E9440020C9416
S113028074070C9400001F920F920FB60F92112462
S11302908F939F9380910001909101010196909317
S11302A00101809300019F918F910F900FBE0F90D9
S11302B01F9018951F920F920FB60F9211248F93CF
S11302C09F93809100019091010101979093010106
S11302D0809300019F918F910F900FBE0F901F90FC
S11302E018951F920F920FB60F9211242F933F93DC
S11302F04F935F936F937F938F939F93AF93BF932A
S1130300EF93FF9340914801509149014F5F5F4F34
S113031050934901409348019A01369527953695A3
S1130320279536952795A5ECB0E20E943007929563
S113033082958F7089279F70892768EE73E0869F66
S11303409001879F300D969F300D1124421753075B
S113035009F5609146017091470180E090E00E94A8
S1130360150620E030E040E752E40E94A3060E9414
S1130370E60570934F0160934E011092470110926D
S11303804601809144019091450101969093450165
S113039080934401FF91EF91BF91AF919F918F9111
S11303A07F916F915F914F913F912F910F900FBE6D
S11303B00F901F9018951F920F920FB60F92112451
S11303C08F939F93499909C0809146019091470169
S11303D0019690934701809346014C9907C085E0AC
S11303E090E090933F0180933E010FC04D9907C068
S11303F08BE090E090933F0180933E0106C08DE036
S113040090E090933F0180933E019F918F910F90D4
S11304100FBE0F901F9018951F920F920FB60F9258
S113042011242F938F939F93EF93FF93E8E7F0E0CA
S113043080819181909343018093420180819181D5
S11304408F3F934039F48FEF90E090934101809374
S113045040010CC080917800909179009695879521
S1130460969587959093410180934001FF91EF9178
S11304709F918F912F910F900FBE0F901F90189501
S11304808EEF87B99FEF94B991E49AB99DEC9BB92B
S113049088B992E094BD83E085BD29EF27BD909390
S11304A06E009AE0909369008DBB94E0909368008D
S11304B092E390936D0090EC90937C009FEE909368
S11304C07A0010927B009EE390937E0093EA94BDA1
S11304D085BD78940E94250460910001709101010A
S11304E07695679580E090E00E94150623EC35EF41
S11304F048EC50E40E94A30620E030E543EC57E4C6
S11305000E9474056B017C0160914E0170914F0152
S113051080E090E00E941506A70196010E94A306C0
S113052020E030E040E752E40E94A3060E94E60582
S113053070934B0160934A014091440150914501ED
S1130540469F9001479F300D569F300D1124C901DD
S113055060E17EE00E941C0770934D0160934C01A2
S11305608091400187BD0E947D0461E082E091E0BA
S11305700E9445056AE080E00E94560561E081E141
S113058091E00E9445054AE06AE473E0809100012D
S1130590909101010E943F076AE087E30E9456059B
S11305A061E08AE493E00E94450564E180E00E94F2
S11305B0560561E08BE191E00E9445054AE06AE45A
S11305C073E080914E0190914F010E943F0764E1D6
S11305D08EE10E94560561E08AE493E00E9445059D
S11305E04AE06AE473E080914C0190914D010E94CD
S11305F03F0761E287E30E94560562E08AE493E0E4
S11306000E94450563E289E40E94560561E080E2A8
S113061091E00E9445056EE180E00E94560561E08C
S113062083E291E00E9445054AE06AE473E0809128
S11306304201909143010E943F076EE189E10E94CB
S1130640560561E08AE493E00E94450580913E01ED
S113065090913F018530910551F468E280E00E9459
S1130660560561E088E291E00E94450518C08B3090
S1130670910551F468E280E00E94560561E08FE242
S113068091E00E9445050BC00D9749F468E280E0B3
S11306900E94560561E086E391E00E9445050E94B0
S11306A05B0585B1807885B985B1806685B945B12A
S11306B0E0914A01F0914B019F01ADECBCEC0E942A
S11306C030079695879596958795969587959C017D
S11306D0220F331F880F991F880F991F880F991FA6
S11306E0820F931F9F01281B390BC9018F70842B24
S11306F085B98FED9EE20197F1F700C0000085B146
S1130700807885B985B1806585B945B120914A0164
S113071030914B010E943007FC01F695E795F69560
S1130720E795F695E7959F010E9430079695879582
S113073096958795969587959C01220F331F880F70
S1130740991F880F991F880F991F820F931F9F016C
S1130750281B390BC9018F70842B85B98FED9EE25C
S11307600197F1F700C0000085B1807885B985B1A3
S1130770806385B945B120914A0130914B0136958A
S1130780279536952795ABE7B4E10E943007FC0125
S1130790F695E7959F01ADECBCEC0E943007969569
S11307A0879596958795969587959C01220F331F7B
S11307B0880F991F880F991F880F991F820F931F05
S11307C09F01281B390BC9018F70842B85B98FEDCC
S11307D09EE20197F1F700C000007ECE98B19D7FA4
S11307E098B9662329F098B1986098B990E01FC031
S11307F098B1977F98B9FACF47E050E0491B510967
S1130800282F30E002C0359527954A95E2F720FF5E
S113081004C028B1206128B903C028B12F7E28B9AB
S113082028B1206228B928B12F7D28B99F5F98305C
S113083018F388B1826088B9089560E00E94EE03DD
S1130840089561E00E94EE030895CF93DF9387B18A
S1130850826087B987B1846087B987B1886087B9B6
S113086087B1806187B987B1806287B988B18460B4
S113087088B988B1826088B983EC99E00197F1F76F
S113088000C0000088B18B7F88B98BE594E40197A0
S1130890F1F700C0000088B1846088B988B18D7F09
S11308A088B981E20E941D0483E10E941D0486E050
S11308B00E941D0482EC0E941D0480E20E941D041B
S11308C089E00E941D0480E80E941D0480E40E94C7
S11308D01D04C0E0D0E004C080E00E942104219601
S11308E0C83F91E0D907C0F388E00E941D048CE062
S11308F00E941D04DF91CF91089580E80E941D0499
S113090080E40E941D04109248031092490380E081
S113091090E005C0FC01E05BFE4F10820196883F29
S113092021E09207B8F30895262F2695269526955B
S113093090E034E5239F800D911D1124442379F028
S1130940677021E030E002C0220F331F6A95E2F79E
S1130950FC01E05BFE4F8081282B208308956770A3
S113096021E030E002C0220F331F6A95E2F7FC0158
S1130970E05BFE4F20958081282320830895EF9229
S1130980FF920F931F93CF93DF93E82EF62E00E090
S113099045C02E2D30E020523109802F6F2D0E944A
S11309A01007F901EE0FFF1FEE0FFF1FE20FF31FF9
S11309B0E80FF11DE859FF4FE491812F0E941007C1
S11309C0F0E002C0F595E7958A95E2F7E0FF0AC0EA
S11309D06091490380914803610F41E0800F0E94B8
S11309E0940409C06091490380914803610F40E079
S11309F0800F0E9494041F5F01C010E0212F30E09B
S1130A00CE01880F991F880F991F880F991F8C1B7F
S1130A109D0B281739070CF4BCCF0F5F202F30E053
S1130A20CF2DD0E0CE01880F991F880F991F8C0F0E
S1130A309D1F281739070CF3E8E4F3E08F2D880F86
S1130A40880F8F0D9081890F8F5F8083843570F0BC
S1130A5010924803E9E4F3E08F2D880F880F880F84
S1130A60982F9F198081890F8F5F8083809149031C
S1130A70803320F01092480310924903DF91CF9104
S1130A801F910F91FF90EF9008951F93CF93DF93E1
S1130A90EC01162F04C02196612F0E94BF048881A7
S1130AA08111F9CFDF91CF911F910895809348036D
S1130AB0609349030895CF93DF9380E80E941D0457
S1130AC080E40E941D04C0E0D0E007C0FE01E05BAA
S1130AD0FE4F80810E9421042196C83F81E0D807FF
S1130AE0A8F3DF91CF9108950E9488050C946906BC
S1130AF00E94620658F00E945B0640F029F45F3FB2
S1130B0029F00C94520651110C949D060C9458062D
S1130B100E947A0668F39923B1F3552391F3951B48
S1130B20550BBB27AA2762177307840738F09F5F0A
S1130B305F4F220F331F441FAA1FA9F335D00E2E77
S1130B403AF0E0E832D091505040E695001CCAF7E4
S1130B502BD0FE2F29D0660F771F881FBB1F2617A7
S1130B6037074807AB07B0E809F0BB0B802DBF017E
S1130B70FF2793585F4F3AF09E3F510578F00C944D
S1130B8052060C949D065F3FE4F3983ED4F3869599
S1130B9077956795B795F7959F5FC9F7880F911D6E
S1130BA09695879597F90895E1E0660F771F881F5A
S1130BB0BB1F621773078407BA0720F0621B730B0D
S1130BC0840BBA0BEE1F88F7E09508950E94820605
S1130BD088F09F5798F0B92F9927B751B0F0E1F0FA
S1130BE0660F771F881F991F1AF0BA95C9F714C0AA
S1130BF0B13091F00E949C06B1E008950C949C06DB
S1130C00672F782F8827B85F39F0B93FCCF38695E2
S1130C1077956795B395D9F73EF49095809570953F
S1130C2061957F4F8F4F9F4F0895E89409C097FBBC
S1130C303EF490958095709561957F4F8F4F9F4FAF
S1130C409923A9F0F92F96E9BB279395F6958795F3
S1130C5077956795B795F111F8CFFAF4BB0F11F4B6
S1130C6060FF1BC06F5F7F4F8F4F9F4F16C088235D
S1130C7011F096E911C0772321F09EE8872F762F93
S1130C8005C0662371F096E8862F70E060E02AF0D4
S1130C909A95660F771F881FDAF7880F96958795C0
S1130CA097F9089597F99F6780E870E060E00895E8
S1130CB09FEF80EC089500240A9416161706180670
S1130CC00906089500240A9412161306140605064C
S1130CD00895092E0394000C11F4882352F0BB0FDD
S1130CE040F4BF2B11F460FF04C06F5F7F4F8F4F40
S1130CF09F4F089557FD9058440F551F59F05F3F7B
S1130D0071F04795880F97FB991F61F09F3F79F029
S1130D1087950895121613061406551FF2CF4695AB
S1130D20F1DF08C0161617061806991FF1CF86952D
S1130D307105610508940895E894BB276627772711
S1130D40CB0197F908950E94B6060C9469060E9497
S1130D505B0638F00E94620620F0952311F00C9493
S1130D6052060C94580611240C949D060E947A068F
S1130D7070F3959FC1F3950F50E0551F629FF001EA
S1130D80729FBB27F00DB11D639FAA27F00DB11D03
S1130D90AA1F649F6627B00DA11D661F829F22278C
S1130DA0B00DA11D621F739FB00DA11D621F839F13
S1130DB0A00D611D221F749F3327A00D611D231FE9
S1130DC0849F600D211D822F762F6A2F11249F5737
S1130DD050409AF0F1F088234AF0EE0FFF1FBB1F3A
S1130DE0661F771F881F91505040A9F79E3F5105F9
S1130DF080F00C9452060C949D065F3FE4F3983EF9
S1130E00D4F3869577956795B795F795E7959F5FA2
S1130E10C1F7FE2B880F911D9695879597F9089534
S1130E20991B79E004C0991F961708F0961B881F38
S1130E307A95C9F780950895AA1BBB1B51E107C099
S1130E40AA1FBB1FA617B70710F0A61BB70B881F56
S1130E50991F5A95A9F780959095BC01CD010895E5
S1130E60A29FB001B39FC001A39F700D811D1124E7
S1130E70911DB29F700D811D1124911D0895BB27F2
S1130E804A3031F4992322F4BDE2909581959F4F25
S1130E900C944B07BB27FB015527AA27880F991FE2
S1130EA0AA1FA41710F0A41B83955051B9F7A05D95
S1130EB0AA3308F0A95DA193009779F7B111B19312
S1130EC01192CB010C946407DC01FC01672F719132
S1130ED07723E1F7329704C07C916D93708362911C
S10F0EE0AE17BF07C8F30895F894FFCFC5
S1130EEC3200434F4D502E20444520424F52444F24
S1130EFC004469616D28636D293A0052504D3A00E3
S1130F0C4B6D004144433A004D6F646F3A50004DB1
S1110F1C6F646F3A44004D6F646F3A520000E8
S9030000FC
