S01C00004D617465757350657265697261537072696E74342E737265631D
S11300000C9434000C9448000C9470000C9446003A
S11300100C9446000C9446000C9446000C94460044
S11300200C9446000C9446000C9446000C94460034
S11300300C9446000C9446000C9446000C94460024
S11300400C9446000C9446000C9446000C94460014
S11300500C9446000C9446000C9446000C94460004
S11300600C9446000C94460011241FBECFEFD8E038
S1130070DEBFCDBF21E0A0E0B1E001C01D92A230FF
S1130080B207E1F70E9493000C94C4000C940000A2
S11300901F920F920FB60F9211248F939F9380910A
S11300A00001833028F4909101019F5F9093010136
S11300B0909101019A3069F4833030F48F5F80931A
S11300C000011092010105C083E0809300011092A9
S11300D001019F918F910F900FBE0F901F90189563
S11300E01F920F920FB60F9211248F9380910101EA
S11300F0882321F08150809301010FC08091000179
S1130100882339F081508093000189E080930101B4
S113011004C010920101109200018F910F900FBE44
S11301200F901F9018958FE084B987B983EF8AB92F
S11301308CE08BB98AE08093690083E08DBB78946E
S113014087E088B915B896E098B9EFE9FFE03197F0
S1130150F1F700C0000088B99091010195B995E0CC
S113016098B9EFE9FFE03197F1F700C0000088B9D2
S11301708091000185B983E088B98FE99FE00197F8
S10F0180F1F700C00000DCCFF894FFCFC2
S9030000FC
