S01C00004D617465757350657265697261537072696E74342E737265631D
S11300000C9424010C9443010C945A010C94410166
S11300100C9441010C94DD010C9441010C944101B8
S11300200C9441010C9441010C9441010C94410144
S11300300C9441010C9441010C9471010C94410104
S11300400C9441010C9441010C9441010C94410124
S11300500C9441010C94F4010C9441010C94410161
S11300600C9441010C944101000000000000005F69
S113007000000007000700147F147F14242A7F2A3D
S11300801223130864623649552250000503000008
S1130090001C2241000041221C0014083E081408E0
S11300A0083E0808005030000008080808080060EE
S11300B060000020100804023E5149453E00427F82
S11300C0400042615149462141454B311814127F89
S11300D01027454545393C4A494930017109050312
S11300E03649494936064949291E0036360000007A
S11300F0563600000814224100141414141400414C
S11301002214080201510906324979413E7E111137
S1130110117E7F494949363E414141227F41412276
S11301201C7F494949417F090909013E4149497AEE
S11301307F0808087F00417F41002040413F017F44
S1130140081422417F404040407F020C027F7F041C
S113015008107F3E4141413E7F090909063E415155
S1130160215E7F09192946464949493101017F0128
S1130170013F4040403F1F2040201F3F4038403F48
S11301806314081463070870080761514945430064
S11301907F41410002040810200041417F00040215
S11301A00102044040404040000102040020545435
S11301B054787F48444438384444442038444448BC
S11301C07F3854545418087E0901020C5252523E8E
S11301D07F0804047800447D40002040443D007FB3
S11301E01028440000417F40007C041804787C08F7
S11301F004047838444444387C141414080814144F
S1130200187C7C080404084854545420043F444097
S1130210203C4040207C1C2040201C3C4030403C82
S113022044281028440C5050503C4464544C44001E
S11302300836410000007F00000041360800100825
S1130240081008000000000011241FBECFEFD8E002
S1130250DEBFCDBF11E0A0E0B1E0EEE0FFE002C000
S113026005900D92A432B107D9F723E0A4E2B1E0DE
S113027001C01D92A434B207E1F70E9444020C9419
S113028085070C9400001F920F920FB60F92112451
S11302908F939F9380910001909101010196909317
S11302A00101809300019F918F910F900FBE0F90D9
S11302B01F9018951F920F920FB60F9211248F93CF
S11302C09F93809100019091010101979093010106
S11302D0809300019F918F910F900FBE0F901F90FC
S11302E018951F920F920FB60F9211242F933F93DC
S11302F04F935F936F937F938F939F93AF93BF932A
S1130300EF93FF9340913201509133014F5F5F4F60
S113031050933301409332019A01369527953695CF
S1130320279536952795A5ECB0E20E944107929552
S113033082958F7089279F70892768EE73E0869F66
S11303409001879F300D969F300D1124421753075B
S113035019F560913001709131017695679580E0CF
S113036090E00E94260620E030E040E752E40E943C
S1130370B4060E94F7057093390160933801109216
S113038031011092300180912E0190912F0101963C
S113039090932F0180932E01FF91EF91BF91AF9124
S11303A09F918F917F916F915F914F913F912F9189
S11303B00F900FBE0F901F9018951F920F920FB6BB
S11303C00F9211248F939F9380913001909131016A
S11303D0019690933101809330019F918F910F90FA
S11303E00FBE0F901F9018951F920F920FB60F9289
S11303F011242F933F934F935F936F937F938F9326
S11304009F93AF93BF93EF93FF93E8E7F0E080816E
S1130410918190932D0180932C01808191818F3F54
S1130420934069F480E090E0AFE7B3E4809328015F
S113043090932901A0932A01B0932B0114C06091D9
S1130440780070917900769567957695679580E048
S113045090E00E94260660932801709329018093FE
S11304602A0190932B01FF91EF91BF91AF919F913E
S11304708F917F916F915F914F913F912F910F9049
S11304800FBE0F901F9018958EEF87B99FEF94B908
S113049091E49AB99DEF9BB988B992E094BD83E049
S11304A085BD29EF27BD90936E002AE02093690053
S11304B08DBB24E02093680090936D0090EC9093A2
S11304C07C009FEE90937A0010927B009EE39093C1
S11304D07E0093EA94BD85BD78940E942F046091B8
S11304E00001709101017695679580E090E00E948B
S11304F0260623EC35EF48EC50E40E94B40620E0D5
S113050030E543EC57E40E947E056B017C01609169
S113051038017091390180E090E00E942606A7011D
S113052096010E94B40620E030E040E752E40E94C5
S1130530B4060E94F705709335016093340140912D
S11305402E0150912F01469F9001479F300D569FD9
S1130550300D1124C90160E17EE00E942D077093E3
S113056037016093360160912801709129018091CF
S11305702A0190912B010E94F70567BD0E94870410
S113058061E082E091E00E944F056AE080E00E9411
S1130590600561E081E191E00E944F054AE064E377
S11305A073E080910001909101010E9450076AE07C
S11305B087E30E94600561E084E393E00E944F05B5
S11305C064E180E00E94600561E08BE191E00E94BB
S11305D04F054AE064E373E080913801909139015A
S11305E00E94500764E18EE10E94600561E084E3AB
S11305F093E00E944F054AE064E373E08091360182
S1130600909137010E94500761E283E20E946005E5
S113061062E084E393E00E944F0563E28CE30E946E
S1130620600561E080E291E00E944F054AE064E3E6
S113063073E080912C0190912D010E9450076EE18E
S113064080E00E94600561E084E393E00E944F052E
S1130650609128017091290180912A0190912B01C8
S11306600E94F005DC01CB014AE064E373E00E94E0
S1130670500768E280E00E94600561E084E393E053
S11306800E944F050E94650585B1807885B985B1C2
S1130690806685B945B1E0913401F09135019F013F
S11306A0ADECBCEC0E94410796958795969587958D
S11306B0969587959C01220F331F880F991F880FE9
S11306C0991F880F991F820F931F9F01281B390BB5
S11306D0C9018F70842B85B98FED9EE20197F1F7E4
S11306E000C0000085B1807885B985B1806585B981
S11306F045B120913401309135010E944107FC013C
S1130700F695E795F695E795F695E7959F010E948E
S113071041079695879596958795969587959C011B
S1130720220F331F880F991F880F991F880F991F55
S1130730820F931F9F01281B390BC9018F70842BD3
S113074085B98FED9EE20197F1F700C0000085B1F5
S1130750807885B985B1806385B945B1209134012C
S1130760309135013695279536952795ABE7B4E159
S11307700E944107FC01F695E7959F01ADECBCECA6
S11307800E944107969587959695879596958795A6
S11307909C01220F331F880F991F880F991F880F00
S11307A0991F820F931F9F01281B390BC9018F705A
S11307B0842B85B98FED9EE20197F1F700C000000C
S11307C04D990DC080E090E0A0E8BFE38093240140
S11307D090932501A0932601B093270180CE109217
S11307E0240110922501109226011092270177CE40
S11307F098B19D7F98B9662329F098B1986098B90B
S113080090E01FC098B1977F98B9FACF47E050E0C5
S1130810491B5109282F30E002C0359527954A9588
S1130820E2F720FF04C028B1206128B903C028B131
S11308302F7E28B928B1206228B928B12F7D28B984
S11308409F5F983018F388B1826088B9089560E09A
S11308500E94F803089561E00E94F8030895CF937D
S1130860DF9387B1826087B987B1846087B987B124
S1130870886087B987B1806187B987B1806287B999
S113088088B1846088B988B1826088B983EC99E0C2
S11308900197F1F700C0000088B18B7F88B98BE520
S11308A094E40197F1F700C0000088B1846088B92E
S11308B088B18D7F88B981E20E94270483E10E9478
S11308C0270486E00E94270482EC0E94270480E229
S11308D00E94270489E00E94270480E80E942704DC
S11308E080E40E942704C0E0D0E004C080E00E94BD
S11308F02B042196C83F91E0D907C0F388E00E94F9
S113090027048CE00E942704DF91CF91089580E8AA
S11309100E94270480E40E9427041092320310925C
S1130920330380E090E005C0FC01E65CFE4F1082DA
S11309300196883F21E09207B8F30895262F269563
S11309402695269590E034E5239F800D911D112472
S1130950442379F0677021E030E002C0220F331F96
S11309606A95E2F7FC01E65CFE4F8081282B208328
S11309700895677021E030E002C0220F331F6A95AA
S1130980E2F7FC01E65CFE4F20958081282320835A
S11309900895EF92FF920F931F93CF93DF93E82E66
S11309A0F62E00E045C02E2D30E020523109802F74
S11309B06F2D0E942107F901EE0FFF1FEE0FFF1F9D
S11309C0E20FF31FE80FF11DE859FF4FE491812F67
S11309D00E942107F0E002C0F595E7958A95E2F7B9
S11309E0E0FF0AC06091330380913203610F41E05C
S11309F0800F0E949E0409C06091330380913203EA
S1130A00610F40E0800F0E949E041F5F01C010E050
S1130A10212F30E0CE01880F991F880F991F880F6E
S1130A20991F8C1B9D0B281739070CF4BCCF0F5F43
S1130A30202F30E0CF2DD0E0CE01880F991F880FF2
S1130A40991F8C0F9D1F281739070CF3E2E3F3E07D
S1130A508F2D880F880F8F0D9081890F8F5F808372
S1130A60843570F010923203E3E3F3E08F2D880FA6
S1130A70880F880F982F9F198081890F8F5F80833B
S1130A8080913303803320F01092320310923303A9
S1130A90DF91CF911F910F91FF90EF9008951F93D5
S1130AA0CF93DF93EC01162F04C02196612F0E948F
S1130AB0C90488818111F9CFDF91CF911F910895E5
S1130AC080933203609333030895CF93DF9380E8D8
S1130AD00E94270480E40E942704C0E0D0E007C0FD
S1130AE0FE01E65CFE4F80810E942B042196C83FE4
S1130AF081E0D807A8F3DF91CF9108950E94920571
S1130B000C947A060E94730658F00E946C0640F01A
S1130B1029F45F3F29F00C94630651110C94AE063E
S1130B200C9469060E948B0668F39923B1F355234C
S1130B3091F3951B550BBB27AA27621773078407EC
S1130B4038F09F5F5F4F220F331F441FAA1FA9F382
S1130B5035D00E2E3AF0E0E832D091505040E69570
S1130B60001CCAF72BD0FE2F29D0660F771F881FD1
S1130B70BB1F261737074807AB07B0E809F0BB0BC4
S1130B80802DBF01FF2793585F4F3AF09E3F5105D8
S1130B9078F00C9463060C94AE065F3FE4F3983E41
S1130BA0D4F3869577956795B795F7959F5FC9F7C1
S1130BB0880F911D9695879597F90895E1E0660F42
S1130BC0771F881FBB1F621773078407BA0720F0BB
S1130BD0621B730B840BBA0BEE1F88F7E095089524
S1130BE00E94F7056894B1110C94AE0608950E9412
S1130BF0930688F09F5798F0B92F9927B751B0F012
S1130C00E1F0660F771F881F991F1AF0BA95C9F78C
S1130C1014C0B13091F00E94AD06B1E008950C9477
S1130C20AD06672F782F8827B85F39F0B93FCCF32A
S1130C30869577956795B395D9F73EF49095809509
S1130C40709561957F4F8F4F9F4F0895E89409C029
S1130C5097FB3EF490958095709561957F4F8F4FEB
S1130C609F4F9923A9F0F92F96E9BB279395F69501
S1130C70879577956795B795F111F8CFFAF4BB0F7F
S1130C8011F460FF1BC06F5F7F4F8F4F9F4F16C0E3
S1130C90882311F096E911C0772321F09EE8872F6D
S1130CA0762F05C0662371F096E8862F70E060E029
S1130CB02AF09A95660F771F881FDAF7880F9695A2
S1130CC0879597F9089597F99F6780E870E060E049
S1130CD008959FEF80EC089500240A9416161706D1
S1130CE018060906089500240A9412161306140619
S1130CF005060895092E0394000C11F4882352F07C
S1130D00BB0F40F4BF2B11F460FF04C06F5F7F4F33
S1130D108F4F9F4F089557FD9058440F551F59F01A
S1130D205F3F71F04795880F97FB991F61F09F3FD4
S1130D3079F087950895121613061406551FF2CFFD
S1130D404695F1DF08C0161617061806991FF1CF4D
S1130D5086957105610508940895E894BB27662774
S1130D607727CB0197F908950E94C7060C947A0659
S1130D700E946C0638F00E94730620F0952311F04F
S1130D800C9463060C94690611240C94AE060E941C
S1130D908B0670F3959FC1F3950F50E0551F629F2A
S1130DA0F001729FBB27F00DB11D639FAA27F00DC0
S1130DB0B11DAA1F649F6627B00DA11D661F829FE7
S1130DC02227B00DA11D621F739FB00DA11D621FCC
S1130DD0839FA00D611D221F749F3327A00D611DE9
S1130DE0231F849F600D211D822F762F6A2F1124CB
S1130DF09F5750409AF0F1F088234AF0EE0FFF1FFE
S1130E00BB1F661F771F881F91505040A9F79E3F54
S1130E10510580F00C9463060C94AE065F3FE4F336
S1130E20983ED4F3869577956795B795F795E795AA
S1130E309F5FC1F7FE2B880F911D9695879597F9B3
S1130E400895991B79E004C0991F961708F0961B22
S1130E50881F7A95C9F780950895AA1BBB1B51E199
S1130E6007C0AA1FBB1FA617B70710F0A61BB70B16
S1130E70881F991F5A95A9F780959095BC01CD01BB
S1130E800895A29FB001B39FC001A39F700D811D5F
S1130E901124911DB29F700D811D1124911D08957F
S1130EA0BB274A3031F4992322F4BDE29095819511
S1130EB09F4F0C945C07BB27FB015527AA27880F7B
S1130EC0991FAA1FA41710F0A41B83955051B9F7BA
S1130ED0A05DAA3308F0A95DA193009779F7B11139
S1130EE0B1931192CB010C947507DC01FC01672FBF
S1130EF071917723E1F7329704C07C916D937083ED
S1110F006291AE17BF07C8F30895F894FFCFAF
S1130F0E3200434F4D502E20444520424F52444F01
S1130F1E004469616D28636D293A0052504D3A00C0
S1070F2E4B6D000003
S9030000FC
